:020000041004E6
:1000000000000120DD4304106D43041089730510C6
:10001000AA5555AA45554C420000000000000000BA
:1000200000000000000000000000000085730510C3
:100030000000000000000000957305109973051082
:100040006F4304107143041073430410754304108C
:1000500077430410B1730510794304107B430410F7
:100060007D4304107F430410814304102574051060
:1000700083430410BD68051085430410C173051047
:10008000F573051087430410537405108943041059
:100090003D7405108B4304108D4304103574051016
:1000A0002D7405108F4304100000000000000000B4
:1000B0000000000000000000000000000000000040
:1000C00010B5904216D98AB2030C090C0C4659435C
:1000D00080B25343444350431B191A041B0C10189D
:1000E000594180225203002312184B41520DD8026D
:1000F000104310BD4843802252031218520D10467F
:1001000010BDC046EFF31482EFF30981154880F368
:100110001488BFF36F8FF0B543464C4655465E4694
:100120006746F8B4104CEFF30883636006B4BFF37E
:100130004F8F30BFC046C0460B4C646884F30888BC
:1001400082B003BCF8BC9846A146AA46B346BC465A
:10015000F0BC04BC80F3098881F31488BFF36F8F6F
:100160001047C04600000000040000208B0707D0A5
:10017000013A22D30B780131037001308B07F7D19C
:10018000830730D0DB4219D00138043A08D308C9BC
:1001900043701B0A43801B0C03710430043AF6D2EF
:1001A000D20707D30B88437001D08A78C2701B0A2C
:1001B0008370704701D00B7843707047043A06D3C0
:1001C00008C903801B0C43800430043AF8D2D207DC
:1001D00005D30B88038005D08B788370704701D0DE
:1001E0000B780370704770B4103A03D378C978C0A5
:1001F000103AFBD2530701D318C918C001D508C95A
:1002000008C0D20704D30B88038002300231002AD1
:1002100001D50B78037070BC7047C04680B582B0C2
:1002200000AF786039603B681A787B681A707B6829
:1002300001333A6852781A707B6802333A689278D0
:100240001A707B6803333A68D2781A707B6804337B
:100250003A6812791A707B6805333A6852791A70D5
:100260007B6806333A6892791A707B6807333A687C
:10027000D2791A707B6808333A68127A1A707B68F0
:1002800009333A68527A1A707B680A333A68927A6C
:100290001A707B680B333A68D27A1A707B680C3319
:1002A0003A68127B1A707B680D333A68527B1A7079
:1002B0007B680E333A68927B1A707B680F333A681A
:1002C000D27B1A70C046BD4602B080BD80B584B0F6
:1002D00000AFF860B960FB1D1A7007E0BA68531CE4
:1002E000BB60FB68591CF96012781A70FB1D1B7803
:1002F000FA1D591E1170002BF0D1C046C046BD46F4
:1003000004B080BD80B582B000AF786039607B6892
:100310001A783B681B785340DAB27B681A707B68A6
:10032000013319783B6801331A787B6801334A40FE
:10033000D2B21A707B68023319783B6802331A789C
:100340007B6802334A40D2B21A707B680333197853
:100350003B6803331A787B6803334A40D2B21A7081
:100360007B68043319783B6804331A787B6804335C
:100370004A40D2B21A707B68053319783B6805335E
:100380001A787B6805334A40D2B21A707B6806330C
:1003900019783B6806331A787B6806334A40D2B234
:1003A0001A707B68073319783B6807331A787B68C3
:1003B00007334A40D2B21A707B68083319783B6819
:1003C00008331A787B6808334A40D2B21A707B68C7
:1003D000093319783B6809331A787B6809334A4036
:1003E000D2B21A707B680A3319783B680A331A78DC
:1003F0007B680A334A40D2B21A707B680B33197893
:100400003B680B331A787B680B334A40D2B21A70C0
:100410007B680C3319783B680C331A787B680C3393
:100420004A40D2B21A707B680D3319783B680D339D
:100430001A787B680D334A40D2B21A707B680E334B
:1004400019783B680E331A787B680E334A40D2B273
:100450001A707B680F3319783B680F331A787B6802
:100460000F334A40D2B21A70C046BD4602B080BDBA
:1004700080B584B000AFF860B9607A60BB681A7864
:100480007B681B785340DAB2FB681A70BB68013393
:1004900019787B6801331A78FB6801334A40D2B27D
:1004A0001A70BB68023319787B6802331A78FB68CC
:1004B00002334A40D2B21A70BB68033319787B68A2
:1004C00003331A78FB6803334A40D2B21A70BB6810
:1004D000043319787B6804331A78FB6804334A4084
:1004E000D2B21A70BB68053319787B6805331A7865
:1004F000FB6805334A40D2B21A70BB6806331978DC
:100500007B6806331A78FB6806334A40D2B21A7009
:10051000BB68073319787B6807331A78FB680733A1
:100520004A40D2B21A70BB68083319787B68083326
:100530001A78FB6808334A40D2B21A70BB68093394
:1005400019787B6809331A78FB6809334A40D2B2BC
:100550001A70BB680A3319787B680A331A78FB680B
:100560000A334A40D2B21A70BB680B3319787B68E1
:100570000B331A78FB680B334A40D2B21A70BB684F
:100580000C3319787B680C331A78FB680C334A40BB
:10059000D2B21A70BB680D3319787B680D331A78A4
:1005A000FB680D334A40D2B21A70BB680E3319781B
:1005B0007B680E331A78FB680E334A40D2B21A7049
:1005C000BB680F3319787B680F331A78FB680F33D9
:1005D0004A40D2B21A70C046BD4604B080BD80B554
:1005E00082B000AF786039603A687B68110018000B
:1005F000FFF788FEC046BD4602B080BD80B584B01E
:1006000000AF78607B681B781A004C4B9A5C7B6863
:100610001A707B6804331B7819007B680433474ADF
:10062000525C1A707B6808331B7819007B680833AA
:10063000424A525C1A707B680C331B7819007B6845
:100640000C333E4A525C1A700F203B187A6852787D
:100650001A707B6805331B7819007B680133374AB1
:10066000525C1A707B6809331B7819007B6805336C
:10067000324A525C1A707B680D331B7819007B6814
:1006800009332E4A525C1A703B181A787B680D3376
:100690002A498A5C1A703B187A6892781A707B68CB
:1006A0000A331B7819007B680233244A525C1A70A3
:1006B0003B181A787B680A3320498A5C1A703B1809
:1006C0007A6892791A707B680E331B7819007B6800
:1006D00006331A4A525C1A703B181A787B680E333C
:1006E00016498A5C1A703B187A68D27B1A707B684C
:1006F0000B331B7819007B680F33104A525C1A7059
:100700007B6807331B7819007B680B330B4A525CFC
:100710001A707B6803331B7819007B680733074A1C
:10072000525C1A703B181A787B68033303498A5C61
:100730001A70C046BD4604B080BDC046D88D0610B4
:1007400080B584B000AF78607B681B781A004C4B92
:100750009A5C7B681A707B6804331B7819007B688D
:100760000433474A525C1A707B6808331B781900BF
:100770007B680833424A525C1A707B680C331B78E2
:1007800019007B680C333E4A525C1A700F203B18EC
:100790007A68527B1A707B6809331B7819007B6872
:1007A0000D33374A525C1A707B6805331B78190089
:1007B0007B680933324A525C1A707B6801331B78BC
:1007C00019007B6805332E4A525C1A703B181A7860
:1007D0007B6801332A498A5C1A703B187A689278E0
:1007E0001A707B680A331B7819007B680233244A2D
:1007F000525C1A703B181A787B680A3320498A5C6D
:100800001A703B187A6892791A707B680E331B78DD
:1008100019007B6806331A4A525C1A703B181A7822
:100820007B680E3316498A5C1A703B187A68D27856
:100830001A707B6807331B7819007B680333104AF2
:10084000525C1A707B680B331B7819007B68073386
:100850000B4A525C1A707B680F331B7819007B6857
:100860000B33074A525C1A703B181A787B680F33B7
:1008700003498A5C1A70C046BD4604B080BDC046BC
:10088000D88E061090B587B000AF78607A680824DB
:100890003B1911001800FFF7C1FC20003B181B7822
:1008A0001A00E84B9A5C3B185B791900E64B5B5CDD
:1008B0005340DAB23B189B7A1900E44B5B5C53401F
:1008C000DAB23B18DB7B1900E04B5B5C5340DAB2D9
:1008D0007B681A703B181B781A00DC4B9A5C3B183B
:1008E0005B791900D74B5B5C5340DAB23B189B7ABB
:1008F0001900D54B5B5C5340D9B23B18DB7B1A0027
:10090000D24B9A5C7B6801334A40D2B21A703B18D2
:100910001B781A00CD4B9A5C3B185B791900CB4BC6
:100920005B5C5340DAB23B189B7A1900C54B5B5CA9
:100930005340D9B23B18DB7B1A00C34B9A5C7B68EF
:1009400002334A40D2B21A703B181B781A00BE4BD1
:100950009A5C3B185B791900BC4B5B5C5340DAB284
:100960003B189B7A1900B94B5B5C5340D9B23B18DA
:10097000DB7B1A00B34B9A5C7B6803334A40D2B2EC
:100980001A703B181B791A00AE4B9A5C3B185B7AC5
:100990001900AD4B5B5C5340DAB23B189B7B1900EE
:1009A000AA4B5B5C5340D9B23B18DB781A00A74BCB
:1009B0009A5C7B6804334A40D2B21A703B181B79A8
:1009C0001A00A24B9A5C3B185B7A19009D4B5B5C4A
:1009D0005340DAB23B189B7B19009B4B5B5C534046
:1009E000D9B23B18DB781A00984B9A5C7B680533C8
:1009F0004A40D2B21A703B181B791A00934B9A5C8A
:100A00003B185B7A1900914B5B5C5340DAB23B18A0
:100A10009B7B19008B4B5B5C5340D9B23B18DB7856
:100A20001A00894B9A5C7B6806334A40D2B21A702E
:100A30003B181B791A00844B9A5C3B185B7A1900AF
:100A4000824B5B5C5340DAB23B189B7B19007F4BB7
:100A50005B5C5340D9B23B18DB781A00794B9A5C47
:100A60007B6807334A40D2B21A703B181B7A1A00CF
:100A7000744B9A5C3B185B7B1900734B5B5C534077
:100A8000DAB23B189B781900704B5B5C5340D9B2CB
:100A90003B18DB791A006D4B9A5C7B6808334A403F
:100AA000D2B21A703B181B7A1A00684B9A5C3B183A
:100AB0005B7B1900634B5B5C5340DAB23B189B785D
:100AC0001900614B5B5C5340D9B23B18DB791A00CB
:100AD0005E4B9A5C7B6809334A40D2B21A703B186D
:100AE0001B7A1A00594B9A5C3B185B7B1900574BD9
:100AF0005B5C5340DAB23B189B781900514B5B5C4E
:100B00005340D9B23B18DB791A004F4B9A5C7B6893
:100B10000A334A40D2B21A703B181B7A1A004A4B69
:100B20009A5C3B185B7B1900484B5B5C5340DAB224
:100B30003B189B781900454B5B5C5340D9B23B187E
:100B4000DB791A003F4B9A5C7B680B334A40D2B288
:100B50001A703B181B7B1A003A4B9A5C3B185B7867
:100B60001900394B5B5C5340DAB23B189B79190092
:100B7000364B5B5C5340D9B23B18DB7A1A00334BDF
:100B80009A5C7B680C334A40D2B21A703B181B7BCC
:100B90001A002E4B9A5C3B185B781900294B5B5C62
:100BA0005340DAB23B189B791900274B5B5C5340EA
:100BB000D9B23B18DB7A1A00244B9A5C7B680D3360
:100BC0004A40D2B21A703B181B7B1A001F4B9A5C2A
:100BD0003B185B7819001D4B5B5C5340DAB23B1845
:100BE0009B791900174B5B5C5340D9B23B18DB7AF9
:100BF0001A00154B9A5C7B680E334A40D2B21A70C9
:100C00003B181B7B1A00104B9A5C3B185B78190051
:100C10000E4B5B5C5340DAB23B189B7919000B4BCF
:100C20005B5C5340D9B23B18DB7A1A00054B9A5CE7
:100C30007B680F334A40D2B21A70C046BD4607B037
:100C400090BDC046D88F0610D8900610D88D0610DB
:100C500090B587B000AF78607A6808243B1911001E
:100C60001800FFF7DBFA20003B181B781A00FE4B38
:100C70009A5C3B185B781900FC4B5B5C5340DAB222
:100C80003B189B781900FA4B5B5C5340DAB23B1877
:100C9000DB781900F74B5B5C5340DBB21A00F64B74
:100CA0009A5C7B681A703B181B781A00F14B9A5CAF
:100CB0003B185B781900EC4B5B5C5340DAB23B1895
:100CC0009B781900E94B5B5C5340DAB23B18DB7848
:100CD0001900E74B5B5C5340DBB219007B680533BE
:100CE000E54A525C1A703B181B781A00E04B9A5C7C
:100CF0003B185B781900DF4B5B5C5340DAB23B1862
:100D00009B781900D84B5B5C5340DAB23B18DB7818
:100D10001900D64B5B5C5340DBB219007B680A3389
:100D2000D54A525C1A703B181B781A00CF4B9A5C5C
:100D30003B185B781900CE4B5B5C5340DAB23B1832
:100D40009B781900CB4B5B5C5340DAB23B18DB78E5
:100D50001900C54B5B5C5340DBB219007B680F3355
:100D6000C54A525C1A703B181B791A00BE4B9A5C3C
:100D70003B185B791900BD4B5B5C5340DAB23B1802
:100D80009B791900BA4B5B5C5340DAB23B18DB79B4
:100D90001900B84B5B5C5340DBB219007B6804332D
:100DA000B54A525C1A703B181B791A00B14B9A5C19
:100DB0003B185B791900AC4B5B5C5340DAB23B18D3
:100DC0009B791900A94B5B5C5340DAB23B18DB7985
:100DD0001900A74B5B5C5340DBB219007B680933F9
:100DE000A54A525C1A703B181B791A00A04B9A5CFA
:100DF0003B185B7919009F4B5B5C5340DAB23B18A0
:100E00009B791900984B5B5C5340DAB23B18DB7955
:100E10001900964B5B5C5340DBB219007B680E33C4
:100E2000954A525C1A703B181B791A008F4B9A5CDA
:100E30003B185B7919008E4B5B5C5340DAB23B1870
:100E40009B7919008B4B5B5C5340DAB23B18DB7922
:100E50001900854B5B5C5340DBB219007B680333A0
:100E6000854A525C1A703B181B7A1A007E4B9A5CBA
:100E70003B185B7A19007D4B5B5C5340DAB23B1840
:100E80009B7A19007A4B5B5C5340DAB23B18DB7AF1
:100E90001900784B5B5C5340DBB219007B68083368
:100EA000754A525C1A703B181B7A1A00714B9A5C97
:100EB0003B185B7A19006C4B5B5C5340DAB23B1811
:100EC0009B7A1900694B5B5C5340DAB23B18DB7AC2
:100ED0001900674B5B5C5340DBB219007B680D3334
:100EE000654A525C1A703B181B7A1A00604B9A5C78
:100EF0003B185B7A19005F4B5B5C5340DAB23B18DE
:100F00009B7A1900584B5B5C5340DAB23B18DB7A92
:100F10001900564B5B5C5340DBB219007B6802330F
:100F2000554A525C1A703B181B7A1A004F4B9A5C58
:100F30003B185B7A19004E4B5B5C5340DAB23B18AE
:100F40009B7A19004B4B5B5C5340DAB23B18DB7A5F
:100F50001900454B5B5C5340DBB219007B680733DB
:100F6000454A525C1A703B181B7B1A003E4B9A5C38
:100F70003B185B7B19003D4B5B5C5340DAB23B187E
:100F80009B7B19003A4B5B5C5340DAB23B18DB7B2E
:100F90001900384B5B5C5340DBB219007B680C33A3
:100FA000354A525C1A703B181B7B1A00314B9A5C15
:100FB0003B185B7B19002C4B5B5C5340DAB23B184F
:100FC0009B7B1900294B5B5C5340DAB23B18DB7BFF
:100FD0001900274B5B5C5340DBB219007B6801337F
:100FE000254A525C1A703B181B7B1A00204B9A5CF6
:100FF0003B185B7B19001F4B5B5C5340DAB23B181C
:101000009B7B1900184B5B5C5340DAB23B18DB7BCF
:101010001900164B5B5C5340DBB219007B6806334A
:10102000154A525C1A703B181B7B1A000F4B9A5CD6
:101030003B185B7B19000E4B5B5C5340DAB23B18EC
:101040009B7B19000B4B5B5C5340DAB23B18DB7B9C
:101050001900054B5B5C5340DBB219007B680B3316
:10106000054A525C1A7009E0D8940610D89206100E
:10107000D8930610D8910610D88E0610C046BD46EB
:1010800007B090BDF0B587B000AFF8607A600B2074
:101090003B180A1C1A703B181B78103B10229A420E
:1010A00092415242D2B2002A09D101229A40130041
:1010B000904A13405A1E9341DBB2002B05D17B6846
:1010C000F02200219954FF230FE1C04678680B24D9
:1010D0003B191A78FB681900FFF7F8F820003B1855
:1010E0001B781C33DAB211217B1892001A707B181E
:1010F0001B781B09DBB2013BD9B27B68F022995403
:101100001723FB183A1812781A701623FB180122BD
:101110001A70E0E017203B181B781A1F15243B19A2
:1011200079688A5C1A703B181B78DA1E14257B19C3
:1011300079688A5C1A703B181B789A1E1326BB19B3
:1011400079688A5C1A703B181B785A1E1223FB18A8
:1011500079688A5C1A703A180B217B1812781B7810
:101160001900100000F0CAFC0B00DBB2002B3BD1D1
:101170001022BB183A1912781A707B191B785E4A34
:10118000D15C3B1916203A1812784A401A70BB19E4
:101190001A787B1958498A5C1A7012243B191A78FC
:1011A000BB1955498A5C1A701022BB181A783B1972
:1011B00051498A5C1A703B181B785B005AB20400D4
:1011C0003B181B78DB09DBB2191C0B1CDB185B1806
:1011D000191CC800191C031CCB18DBB25BB25340AE
:1011E0005AB23B191A702DE00B217B181B78182B73
:1011F00028D91723FA187B1812781B7819001000C9
:1012000000F07CFC0B00DBB2102B1BD115217B18EE
:101210001A787B1838498A5C1A7014217B181A785E
:101220007B1835498A5C1A7013217B181A787B1851
:1012300031498A5C1A7012217B181A787B182E4962
:101240008A5C1A7010243B19172039180B22BA181F
:10125000097812788A1A1A703B191B787A68D15C5F
:101260003B181B781522BA1812784A40D1B27A6816
:10127000D1543B191B7801337A68D15C3B181B7839
:1012800001331422BA1812784A40D1B27A68D15484
:101290003B191B7802337A68D15C3B181B78023308
:1012A0001322BA1812784A40D1B27A68D1543B1945
:1012B0001B7803337A68D15C3B181B780333122206
:1012C000BA1812784A40D1B27A68D1543B183A1809
:1012D000127804321A701723FA181123FB181278A7
:1012E0001B789A4200D215E700231800BD4607B0CC
:1012F000F0BDC04601010100D88D0610B0B58AB01E
:1013000000AFF860B9607A607B68F0229B5C002BCC
:1013100039D07A68F9681423FB181800FFF7A8F889
:101320002723FB1801221A7014E014257B191800DA
:10133000FFF7A8FA7B6827243A19127812019A1845
:101340007B1911001800FFF74AF93B193A19127876
:1013500001321A707B68F0229B5C27243A191278BC
:101360009A42E2D314257B191800FFF747F97B68EE
:101370003A19127812019A187919BB681800FFF708
:1013800077F8002300E0FF231800BD460AB0B0BD87
:1013900080B584B000AFF860B9607A603B601BE054
:1013A000FA683B6811001800FEF7ACFFBA693968AB
:1013B0003B681800FFF7A2FF031E01D0012311E0D4
:1013C0003A68BB6811001800FEF728FFFB6810336D
:1013D000FB60BB681033BB607B685A1E7A60002BD1
:1013E000DED100231800BD4604B080BD90B58BB09F
:1013F00000AFF860B9607A607B68F0229B5C002BDC
:1014000039D07B687A68F021525C12019A18F96829
:1014100014243B191800FFF72BF83B191800FFF7AD
:101420008FF92723FB187A68F021525C1A700FE0BD
:101430007B682722BA18127812019A1814243B19D3
:1014400011001800FFF7CBF83B191800FFF700FC5C
:1014500027217B187A181278013A1A707B181B78AA
:10146000002BE5D17A681423F918BB681800FEF741
:10147000FFFF002300E0FF231800BD460BB090BD26
:1014800080B588B000AFF860B9607A603B6023E057
:10149000FA681023FB1811001800FEF7BFFEBA6AA5
:1014A000B968FB681800FFF7A1FF031E01D00123F4
:1014B00018E03A68BB6811001800FEF723FF1023FC
:1014C000FA183B6811001800FEF7A8FEFB681033FD
:1014D000FB60BB681033BB607B685A1E7A60002BD0
:1014E000D6D100231800BD4608B080BD80B582B0BB
:1014F00000AF78607B68F13310220021180016F0ED
:101500007DFE7A688A235B000021D1507B68F0223F
:101510000021180016F072FEC046BD4602B080BD24
:1015200080B582B000AF786039607A683B6810217E
:101530001800FFF7A7FDC046BD4602B080BD90B5BC
:101540008DB000AFF860B9607A60FA688A235B00FA
:10155000D358002B00D19AE0FA688A235B00D35855
:101560001022D21A7B68934200D913007B62FB6879
:101570009A1CFF32F9688A235B00CB58D3187A6A29
:10158000B968180016F01EFEFA688A235B00D2586C
:101590007B6AD118FA688A235B00D150FA688A23E3
:1015A0005B00D3580F2B00D882E07A687B6A9A429E
:1015B00000D17DE00023FB6218E0FA68F121FB6AAC
:1015C000D3185B181A78F8680223FF33F96A4118B8
:1015D000CB181B785340D8B2FA68F121FB6AD318B4
:1015E0005B18021C1A70FB6A0133FB62FB6A0F2B4B
:1015F000E3DDFB68F1331800FB68F133FA6819008A
:10160000FFF77CFEBA687B6AD318BB607A687B6A96
:10161000D31A7B603BE00023BB6215E0FA68F1213E
:10162000BB6AD3185B181A78BB6AB968CB181B78E9
:101630005340D8B2FA68F121BB6AD3185B18021C78
:101640001A70BB6A0133BB62BB6A0F2BE6DDFB6815
:10165000F13314243A191000190010231A0016F05F
:10166000B1FDFA6839193B191800FFF747FEFB680E
:10167000F1331A003B191000190010231A0016F05C
:10168000A1FDBB681033BB607B68103B7B607B684F
:10169000102BC0D8FB680233FF337A68B968180092
:1016A00016F090FDFA688A235B007968D15000E05B
:1016B000C046BD460DB090BD90B593B000AF786008
:1016C00039601C243B1910220021180016F096FDE9
:1016D0003A6839193B191800FFF710FE3B191B78BF
:1016E0005BB2002B2EDA00237B6418E01C203A1832
:1016F0007B6CD3181B785B005AB27B6C01333918B2
:10170000CB5CDB09DBB25BB213435BB2D9B23A18F4
:101710007B6CD3180A1C1A707B6C01337B647B6C66
:101720000E2BE3DD1C217B18DB7BDB18DAB27B1888
:10173000DA737B18DB7B792252425340DAB27B1892
:10174000DA7325E000233B6418E01C203A183B6C58
:10175000D3181B785B005AB23B6C01333918CB5C51
:10176000DB09DBB25BB213435BB2D9B23A183B6C14
:10177000D3180A1C1A703B6C01333B643B6C0E2B74
:10178000E3DD1C217B18DB7BDB18DAB27B18DA7314
:101790003A688A235B00D358102B1FD10023FB63C8
:1017A00018E039680223FF33FA6B8A18D3181A78C5
:1017B0001C23F918FB6BCB181B785340D8B239683F
:1017C0000223FF33FA6B8A18D318021C1A70FB6BC2
:1017D0000133FB63FB6B0F2BE3DD9FE01C23FB1846
:1017E0001B785BB2002B2EDA0023BB6318E01C20B1
:1017F0003A18BB6BD3181B785B005AB2BB6B013332
:101800003918CB5CDB09DBB25BB213435BB2D9B2F4
:101810003A18BB6BD3180A1C1A70BB6B0133BB633D
:10182000BB6B0E2BE3DD1C217B18DB7BDB18DAB2F4
:101830007B18DA737B18DB7B792252425340DAB291
:101840007B18DA7325E000237B6318E01C203A182C
:101850007B6BD3181B785B005AB27B6B0133391852
:10186000CB5CDB09DBB25BB213435BB2D9B23A1893
:101870007B6BD3180A1C1A707B6B01337B637B6B09
:101880000E2BE3DD1C217B18DB7BDB18DAB27B1827
:10189000DA733A688A235B00D25839680223FF332F
:1018A0008A18D31880221A700AE03A688A235B00EB
:1018B000D25839680223FF338A18D31800221A70CD
:1018C0003A688A235B00D358591C3A688A235B0024
:1018D000D1503A688A235B00D3580F2BE5D90023F7
:1018E0003B6318E039680223FF333A6B8A18D31838
:1018F0001A781C23F9183B6BCB181B785340D8B2CD
:1019000039680223FF333A6B8A18D318021C1A7005
:101910003B6B01333B633B6B0F2BE3DD0023FB622F
:1019200018E03A68F121FB6AD3185B181A78386816
:101930000223FF33F96A4118CB181B785340D8B201
:101940003A68F121FB6AD3185B18021C1A70FB6A13
:101950000133FB62FB6A0F2BE3DD3B68F1330C24A0
:101960003A191000190010231A0016F02BFC3A68DF
:1019700079683B191800FFF7C1FC1C23FB181022E3
:101980000021180016F03AFCC046BD4613B090BDC9
:101990000023C25C0133002AFBD1581E70470000AF
:1019A00002B4714649084900095649008E4402BCF8
:1019B0007047C04602B4714649084900095C4900B5
:1019C0008E4402BC7047C04603B4714649084000CB
:1019D0004900095E49008E4403BC704703B4714658
:1019E000490840004900095A49008E4403BC704729
:1019F000002243088B4274D303098B425FD3030A4E
:101A00008B4244D3030B8B4228D3030C8B420DD360
:101A1000FF22090212BA030C8B4202D312120902EE
:101A200065D0030B8B4219D300E0090AC30B8B422C
:101A300001D3CB03C01A5241830B8B4201D38B03DA
:101A4000C01A5241430B8B4201D34B03C01A52417F
:101A5000030B8B4201D30B03C01A5241C30A8B42C2
:101A600001D3CB02C01A5241830A8B4201D38B02AD
:101A7000C01A5241430A8B4201D34B02C01A524151
:101A8000030A8B4201D30B02C01A5241CDD2C309C3
:101A90008B4201D3CB01C01A524183098B4201D33F
:101AA0008B01C01A524143098B4201D34B01C01A2A
:101AB000524103098B4201D30B01C01A5241C308A2
:101AC0008B4201D3CB00C01A524183088B4201D311
:101AD0008B00C01A524143088B4201D34B00C01AFD
:101AE0005241411A00D20146524110467047FFE769
:101AF00001B5002000F0F0F802BDC0460029F7D083
:101B000076E7704703460B437FD4002243088B429D
:101B100074D303098B425FD3030A8B4244D3030B74
:101B20008B4228D3030C8B420DD3FF22090212BA39
:101B3000030C8B4202D31212090265D0030B8B42B5
:101B400019D300E0090AC30B8B4201D3CB03C01A9F
:101B50005241830B8B4201D38B03C01A5241430B7A
:101B60008B4201D34B03C01A5241030B8B4201D36A
:101B70000B03C01A5241C30A8B4201D3CB02C01AD5
:101B80005241830A8B4201D38B02C01A5241430A4D
:101B90008B4201D34B02C01A5241030A8B4201D33C
:101BA0000B02C01A5241CDD2C3098B4201D3CB01E3
:101BB000C01A524183098B4201D38B01C01A524192
:101BC00043098B4201D34B01C01A524103098B4296
:101BD00001D30B01C01A5241C3088B4201D3CB0081
:101BE000C01A524183088B4201D38B00C01A524164
:101BF00043088B4201D34B00C01A5241411A00D214
:101C000001465241104670475DE0CA0F00D049427C
:101C1000031000D34042534000229C4603098B42EC
:101C20002DD3030A8B4212D3FC22890112BA030A74
:101C30008B420CD3890192118B4208D389019211F6
:101C40008B4204D389013AD0921100E08909C3097B
:101C50008B4201D3CB01C01A524183098B4201D37D
:101C60008B01C01A524143098B4201D34B01C01A68
:101C7000524103098B4201D30B01C01A5241C308E0
:101C80008B4201D3CB00C01A524183088B4201D34F
:101C90008B00C01A5241D9D243088B4201D34B006A
:101CA000C01A5241411A00D20146634652415B10AC
:101CB000104601D34042002B00D54942704763468D
:101CC0005B1000D3404201B5002000F005F802BDD2
:101CD0000029F8D016E770477047C0469140031CB2
:101CE00090409C46203A9340194352426346D34069
:101CF000194370478446101C62468C46191C634683
:101D000000E0C0461FB501F0BBFB002801D4002154
:101D1000C8421FBD10B501F005FB4042013010BDA7
:101D200010B501F0ADFB002801DB002010BD012043
:101D300010BDC04610B501F0A3FB002801DD002056
:101D400010BD012010BDC04610B501F027FB0028D2
:101D500001DC002010BD012010BDC04610B501F00F
:101D60001DFB002801DA002010BD012010BDC04677
:101D70008446081C6146FFE71FB500F0EDF9002816
:101D800001D40021C8421FBD10B500F071F94042D6
:101D9000013010BD10B500F0DFF9002801DB002094
:101DA00010BD012010BDC04610B500F0D5F90028C7
:101DB00001DD002010BD012010BDC04610B500F0AF
:101DC0007FF9002801DC002010BD012010BDC046B5
:101DD00010B500F075F9002801DA002010BD0120CF
:101DE00010BDC046002B11D1002A0FD1002900D10F
:101DF000002802D00021C943081C07B4024802A1F0
:101E00004018029003BDC046D1FEFFFF03B46846F0
:101E100001B5029800F024F8019B9E4602B00CBC6C
:101E20007047C04670B500220C4B04000D00FFF750
:101E300095FF002804D12000290002F08FF970BD21
:101E4000064B00222000290001F0F6FD02F086F981
:101E500080231B069C466044F1E7C0460000E04139
:101E6000F0B557464E464546DE46E0B504000D0047
:101E70009246994683B08B4230D82DD04946504681
:101E800002F05EFA29000600200002F059FA331A27
:101E90009846203B9B4633D45A465346934042468D
:101EA0001F00534693401E00AF423AD8AF4200D1C4
:101EB00078E05B46A41BBD41002B00DA75E00022F0
:101EC00000230092019301235A469340019301237A
:101ED00042469340009328E08242CFD9002200235B
:101EE000009201930C9B002B01D01C605D60009858
:101EF000019903B03CBC90469946A246AB46F0BD62
:101F0000424620239B1A5246DA40414613004A4675
:101F10008A40170042461F43534693401E00AF427B
:101F2000C4D900220023009201934346002BD9D04C
:101F3000FB0772081A4346467B080EE0AB4201D10C
:101F4000A2420CD8A41A9D41012024196D41002100
:101F5000013E24184D41002E06D0AB42EED9013E81
:101F600024196D41002EF8D1009801995B460019A3
:101F70006941002B24DB2B005A464446D3402A00FB
:101F8000E2401C005B461500002B2ADB26009E4029
:101F9000330026004746BE403200801A9941009027
:101FA00001919FE7A342BCD883E74246202300214A
:101FB0009B1A0022009101920122DA40019286E7E9
:101FC000424620239B1A2A0046469A402300F340AB
:101FD000444613432A00E2401C005B461500002BD8
:101FE000D4DA42462F002023260097409B1ADE4079
:101FF0003B003343CDE7C046437802781B021A43C7
:102000008378C0781B041343000618437047C0460A
:10201000030A4B7003021B0E8B70030E0870CB700B
:102020007047C04603005A7800781202024398783D
:10203000197900040243D878000610435A79120235
:102040000A43997909040A43D9790906114370476B
:10205000030A5370030C9370030ED3700B0A537171
:102060000B021B0E93710B0E10701171D371704720
:1020700070B542004E024C0045026D0A120EC30FAD
:10208000760A240EC90FFF2A0FD0FF2C11D0012091
:10209000A24200D070BDB542FCD18B420DD0002AC7
:1020A000F8D12800451EA841F4E70120002DF1D108
:1020B000EBE70120002EEDD1E9E70020EAE7C0467A
:1020C000F0B5420046024D024C00C30F760A120ED4
:1020D0006D0A240EC80FFF2A1FD0FF2C10D0002A33
:1020E0001FD171427141002C01D1002D1ED0002959
:1020F0000ED183421ED00221581E08400138F0BD87
:10210000002D26D1002AF4D1714271410029F0D06E
:102110000028F4D101204042F1E7002E19D1FF2C14
:10212000EED0002CE5D1002DE3D1E4E70020002E15
:10213000E5D0E0E7A24205DCEADBAE4202D8E7D315
:102140000020DCE741424141484202210840013879
:10215000D5E702204042D2E7F0B5420046024D02E8
:102160004C00C30F760A120E6D0A240EC80FFF2A08
:102170000DD0FF2C0FD0002A23D171427141002CC9
:102180000FD1002D0DD10020002E14D00DE0002E17
:1021900010D1FF2C15D1002D0CD1002A03D1714292
:1021A0007141002908D1834210D00221581E0840F5
:1021B000013800E00220F0BD0028FCD1012040429F
:1021C000F9E7002CEFD1002DEDD1EEE7A24205DCBE
:1021D000F2DBAE4202D8EFD30020ECE741424141AE
:1021E0004842022108400138E5E7C046F0B54646BE
:1021F000D6464F4643025B0ADA0094464A02C0B50F
:102200004400560A051CB046240E4E0092091F00D9
:1022100020009246ED0F360EC90FFF2E00D17FE051
:10222000012251408D4251D0A21B9146002A00DC70
:102230007EE0002E00D199E0FF2C00D18CE08023BD
:102240005246DB041A4392464A4601231B2A08DC05
:1022500053462021D340891A52468A40511E8A4152
:1022600013436246D31A5A0100D4F3E09B019E093E
:10227000300002F047F805388640844200DDF7E080
:102280003200041B20200134E240041BA64033002E
:102290005E1EB341002413435A0704D00F221A4094
:1022A000042A00D004335A0100D4D6E0621CFE2C6C
:1022B00000D1DAE09B015F0AD0B2C0053843ED07D8
:1022C00028431CBC90469946A246F0BDA21B9146ED
:1022D000002A63DD002E00D199E0FF2C3CD0802342
:1022E0005246DB041A4392464A4601231B2A08DC65
:1022F00053462021D340891A52468A40511E8A41B2
:10230000134363445A0100D4A4E00134FF2C00D1EC
:10231000ABE0012297491A405B080B401343BBE72F
:10232000002A32D08D4235D0FF2252429146A1443C
:102330004A46002A51D0301B002C00D09CE0634656
:10234000002B00D1DFE00138002800D1F7E0FF2E9C
:1023500000D099E00D004346002B00D185E0802796
:10236000FF031F437F02FF207F0AA6E75246002A91
:1023700074D0012252429046C1444A46002A00D1FC
:10238000C8E0FF2C00D05FE7E6E701225140A942F8
:1023900000D049E7FF2252429146A1444A46002A12
:1023A00043D0311B002C00D18CE0FF2E00D192E0F5
:1023B00080236246DB041A43944601231B2909DC6F
:1023C000202063466246CB40411A8A401100481ED5
:1023D00081410B433400534494E7FE22661C324291
:1023E00064D1002C00D082E06346002B00D1ABE02A
:1023F0005346002B00D160E7634652469B1A5A01B0
:1024000000D4AAE0634652460D00D31A44E7524670
:10241000002A23D0012252429046C1444A46002A53
:1024200075D0FF2C00D05FE796E7FE2601342642E8
:1024300053D1002872D16346002B00D193E053465C
:10244000002B00D139E7634400245A0102D54A4ADF
:10245000013413405A0700D020E7DB08FF2C00D1DD
:102460007AE75B025F0AE0B227E7FF20002724E754
:10247000414B241A33400FE7FF2E00D16AE7802337
:102480006246DB041A43944601231B2809DC2024FE
:1024900063466246C340201A82401000441EA04199
:1024A000034352460D003400D31ADCE6634652461D
:1024B0009E1A730117D4002E00D0D9E60025002003
:1024C0000027FAE66346002B44D0013900294CD09E
:1024D000FF2E00D071E743463EE7FF2CC5D05246A1
:1024E00062445308B6E763460D00D61AC0E662465A
:1024F000002A16D15346002B00D02BE78027002559
:10250000FF20FF03D9E60D0043463400A6E75346FB
:102510006344F7E6634652469B1AA4E66246002AE5
:10252000D9D05246002A00D116E78022D2031342A6
:1025300000D111E74046104200D00DE70AE75246AD
:102540000D003400D31A8EE65346002B08D00D0040
:102550004746B2E64346340080E7002B00D079E7D7
:1025600000250027A9E64746A7E653463400634402
:10257000C8E6C046FFFFFF7DFFFFFFFB70B50028E8
:1025800013D0C317C5185D40C40F280001F0BAFE70
:102590009E2301001B1A962B0FDC082801DD083949
:1025A0008D406D026D0AD8B202E0002400200025A3
:1025B000C0052843E407204370BD992B0BDD05229D
:1025C0002E00121AD64002001B3295402800451EEC
:1025D000A84135000543052901DD4A1F95402A0021
:1025E000084E3240680709D00F202840042805D043
:1025F0000432500102D59F2332405B1A9201550AE2
:10260000D8B2D5E7FFFFFFFB70B5051E0ED001F075
:1026100079FE9E2304001B1A962B0CDC082801DD92
:10262000083CA5406D026D0AD8B201E000200025EB
:10263000C005284370BD992B09DD020029001B321B
:1026400091404A1E91410522121AD5400D43052C96
:1026500001DD621F95402900084E31406A0709D00C
:102660000F202840042805D004314A0102D59F23B9
:1026700031401B1B89014D0AD8B2D9E7FFFFFFFB90
:10268000F0B54F46D64646460D0001001800C0B5CD
:1026900017002B035A0A4B0F1343CA00914602033B
:1026A0006E004100520AEC0F7D0F1543760D490D67
:1026B000C00F8246AC46FF00721A844200D198E0F7
:1026C000002A00DC81E0002900D1B6E0C9498E4231
:1026D00000D172E180212800090408438446382A89
:1026E00000DD5EE11F2A00DDEEE1202039006546B5
:1026F000801A8740D14085400D4339004F1EB941B3
:102700006746D7402943DB1B4A46551AA9458941EC
:1027100049425B1A984643461B0200D4CCE043462C
:102720005B025B0A98464346002B00D12CE14046F1
:1027300001F0E8FD01000839202228004346521A22
:102740008B40D0408D4003438E4200DD17E18E1B4D
:10275000721C1F2A00DDA7E1202118002E00891A13
:102760008D408840D640D340691E8D413043984605
:10277000002605436B0709D00F232B40042B05D0FF
:102780002B1DAB42AD416D42A8441D0043461B02C8
:1027900000D494E0974B721C9A4200D19DE04146D0
:1027A000954BED0819400B00520549075B02294380
:1027B0001B0B520D12051343E407234308001900B5
:1027C0001CBC90469946A246F0BD002A43D08A1B05
:1027D000002E00D02AE14C461C4300D1D1E1541E0A
:1027E000012A00D11FE2834DAA4200D172E22200E9
:1027F00023E1002A00DC98E0002942D07D498E4286
:1028000000D1DAE080212800090408438446382AF0
:1028100000DD29E11F2A00DC87E11100654620392F
:10282000CD40202A04D040206146821A91400F43B7
:1028300039004F1EB9410D431BE12900394300D136
:10284000B5E0511E012A00D1ABE16A48824200D1B5
:10285000B2E10A0043E76949751C0D4200D0CFE0A0
:10286000002E00D093E14946194300D1D1E16146E1
:10287000394300D0E3E149465807C9080143DB0862
:1028800026E02900394300D191E0511E012A05D0EC
:102890005848824200D18FE10A00B8E73D004D441C
:1028A0004D4589416344984649428844434602263F
:1028B0001B0200D5EBE0013E6B0700D05CE743460E
:1028C000E9085A0711433200DB084A48824221D006
:1028D0001B0352051B0B520D6CE70023002169E717
:1028E0002A003A4369D04A465807D108DA088023BB
:1028F0001B0308431A4207D02900ED081D4203D1EB
:102900002A00FF0848073843430FC1005B07C90886
:10291000194313000A001A4300D113E28022120364
:1029200013431B03334A1B0B44E7002A4BD08A1B7B
:10293000002E00D1E7E02F48814200D195E18020B0
:1029400000040343382A00DD43E11F2A00DDDBE1F8
:1029500020201D004E46801A8540D64035434E4605
:1029600086403000D340461EB0419C440543ED19DB
:10297000BD429B415B42634498460E007FE01E4A85
:10298000761A13409846F5E6280001F0BBFC0100DA
:1029900018311F2900DCCFE62B00083883400025C2
:1029A000D2E662463A4311004F1EB941ACE64946B1
:1029B0005807C9080143DB0887E749465A07C90891
:1029C0001143DB08A6E70D49701C084200D0BBE0AC
:1029D000002E00D014E14946194300D175E12900C9
:1029E000394300D07EE149465807C9080143DB0856
:1029F0006EE7C046FF070000FFFF7FFFFE070000F5
:102A00004946CD1B6146581AA94589414942884625
:102A100001004046091A8846090200D5A6E0414651
:102A2000294300D07FE60023002451E7C74CA14290
:102A300000D1C7E0802424042343382A54DC1F2A11
:102A400000DDCCE020244846A41A1D004E46A040DC
:102A5000D640A5400400D34062463543661EB441CB
:102A6000D31A9C46254344E062463A4315006F1E44
:102A7000BD414D444D4589414942884698444346AD
:102A80001B0200D418E7B14B01369E4249D04246A2
:102A9000AF4B01211A4013006A080D401543D907B6
:102AA0005B0898460D4365E618001F3EF040202A5B
:102AB00003D040218A1A93401D43691E8D41002393
:102AC000002698460543F7E6110065462039CD40BB
:102AD000202A04D040206146821A91400F433900D9
:102AE0004F1EB94129430FE64A4613431D006B1E92
:102AF0009D417D1BAF429B4162465B42D31A984683
:102B000054460E0007E64846184300D1B3E0501E75
:102B1000012A00D10DE18D4DAA4200D1A5E00200AD
:102B200010E732000023002144E620213800891AF2
:102B300065468F408D40D040791E8F4105433D430F
:102B40006746D740DB1994E7804A904200D1ECE019
:102B50003900494449459241634452429B18DD077C
:102B600049085B08984606000D43A5E64A46BD1A8B
:102B7000AF42894162464942D31A5B1A984654468D
:102B8000D1E56C07F9082143EB0804009DE64A46AD
:102B90001A4375D16146394314D1802300241B03A5
:102BA000BCE64A46D51BA9458941624649429B1A63
:102BB0005B1A98460126AEE54A46D1085A071143EA
:102BC000DB08A7E66346F9085A0754461143DB08B9
:102BD000A0E64A4613431D006B1E9D41C7E6140044
:102BE0001E00203CE640202A05D04024A21A934033
:102BF0004A461A4391464D466B1E9D41354378E740
:102C00004A461A4300D06BE66B07F9081943EB08F4
:102C100080E66146394354D06346F9085C07214396
:102C2000DB08040054E64A46BD1AAF4289416246B9
:102C30004942D31A5B1A9846040001266BE54A46BE
:102C4000D51BA9458941624649429A1A521A9046B3
:102C5000120232D54A46BD1AAF4289416246494204
:102C6000D31A5B1A9846040084E56346F9085A07AC
:102C70001143DB084EE6F90868070143EB0824E638
:102C800062463A4300D198E64A46D1085A071143B2
:102C9000DA0880231B031A4208D06046C5081D428B
:102CA00004D154462A00F908430719434B0FC900C1
:102CB0005B07C908194313002CE64146294300D09D
:102CC000FAE500230A00002402E66B07F90819431D
:102CD000EB08FDE56346F9085B071943634604000A
:102CE000DB0817E63D004D4463444D458941984655
:102CF0004942884443461B0200D4DDE54246144B5A
:102D000001261A409046D7E510001E002038C64024
:102D1000202A05D04020821A93404A461A43914601
:102D20004D466B1E9D41354321E6020000230021E4
:102D300040E54A46D519BD42894163449846494217
:102D40008844B3E50021014A0B0033E5FF0700008A
:102D5000FFFF7FFFF0B557464E464546DE46E0B5DD
:102D6000814605000C03480092461F0085B0240BE5
:102D7000400DCE0F002859D0874B984200D198E0E3
:102D80006B0FE4001C4380231B0423439846834BB2
:102D9000ED009B4600239946834400933C037B004F
:102DA0005046240B5B0DFF0F002B67D07A4A9342ED
:102DB00018D07A49420F8C46E400594614438022C9
:102DC00063441204CB1A14439B46C2000020330014
:102DD0007B409A464B460F2B00D9EFE070499B0091
:102DE000CB589F466F4B52469C462243E344002AF1
:102DF00000D095E049460223194389460024022069
:102E0000E5E700230024002552461B052343D20793
:102E100013432800190005B03CBC90469946A246D1
:102E2000AB46F0BD002400255B4BEDE74B4623434A
:102E3000984600D189E0002C00D1E0E1200001F0AB
:102E400061FA010002000B391D235B1A494610008C
:102E5000D940083884400B004D46234398468540AE
:102E600051483C03831A9B460023994600937B00FC
:102E70005046240B5B0DFF0F002B97D15246224387
:102E800055D0002C00D1CAE1200001F03BFA02002D
:102E90000B3A1D2301009B1A52460839DA408C4038
:102EA000144352468A40414B58449B468344002079
:102EB0008DE74B462343984640D108239946063B6D
:102EC00000258346009369E7B246009B022BA9D0F8
:102ED000032B00D111E2012B93D0354A5A44002A2A
:102EE00000DC3CE16B0700D0A7E1ED084346DB01C5
:102EF00006D542462F4B1A4090468022D2005A44B3
:102F00002D4B9A428EDC4346520558075C0205431E
:102F1000240B530D78E7BA46A04615000090D4E77D
:102F20004A4603231A439146032052464FE7494637
:102F30000123194389460024012048E70C239946C0
:102F4000093BA0468346009328E7042399460023C3
:102F50009B4601330025009320E7002380249A46F6
:102F600000250D4B24034FE7802341461B031942E4
:102F700008D01C4206D11C432403BA461500064B58
:102F8000240B41E78024434624031C432403B24618
:102F9000014B240B38E7C046FF07000001FCFFFF90
:102FA000D895061001F8FFFF0DFCFFFFF3030000AA
:102FB000FF030000FFFFFFFEFE070000444500D2B4
:102FC00016E100D111E101235B429C462E004046F0
:102FD0000025E3442302140E1C431B0C99462304D2
:102FE0001F0C1202494600920197FEF787FD02006E
:102FF0007A430B04310C804619438A420BD90123D2
:103000005B429C460919E0448C4204D88A4202D9AA
:10301000831E98460919881A4946FEF76FFD090470
:103020008C4631046646019A090C42430300314341
:103030008A4204D90919013B8C4200D811E1891A4E
:103040004246009E12041A43330C1F00100C904697
:10305000029313043204160C32001B0C5A430396DD
:103060007B4346437843170CBC469B1963449E42FE
:1030700003D980267602B44660441E0C301816042C
:103080001B04360C9E19814200D29CE000D197E0CF
:10309000AE1B091AB54280414042081A844200D151
:1030A00011E14946FEF72AFD019A0B044243310C17
:1030B000050019438A4207D90919013D8C4203D8FA
:1030C0008A4201D9851E0919881A4946FEF716FD5C
:1030D00009048C4631046646019A090C42430300F8
:1030E00031438A4207D90919013B8C4203D88A42ED
:1030F00001D9831E0919039E891A32002D041D432C
:10310000029F2B041B0C5A437B439C46280C4643CE
:10311000130CB444634478439E4203D9802676025C
:10312000B44660441E0C12041B04120C30189B1889
:10313000814206D302D001231D43CEE6002B00D1ED
:10314000CBE661186E1EA14200D2A4E0814200D2FB
:10315000C9E000D1D9E03500EDE701256D4201213C
:10316000891A382900DD4CE61F2900DC7FE01F2387
:103170005B429A1A4346D340202904D04446654A0C
:103180005A44944025436A1E954107222B4315005B
:1031900000241D401A4200D1A1E00F2200241A4051
:1031A000042A00D198E01A1D9A429B415B42E41820
:1031B0001300220200D48FE001230024002523E61F
:1031C000B54200D364E743465A1E009B9C466544C3
:1031D0001F009D429B415B421B19C9188C423AD289
:1031E000884263D860D0904652E7AA4200D9EAE606
:1031F0004346DE0758086B081E43ED07EAE64846DB
:1032000001F080F801000200153120321C2900DC99
:103210001AE64B46083883400025984620E601F020
:1032200071F803001A00153220301C2A00DC30E649
:103230005446083B00229C4035E60F232B40042BCC
:1032400000D152E605235B42AB429B4104355B4211
:10325000ED0898444AE68C42C5D1AF42C0D99046A9
:1032600016E78A4200D8EAE6831E0919E7E62A4AE9
:1032700028005A44434695409340C8406A1E9541F1
:10328000444603432B43CC405A0792D00F221A40A6
:10329000042A88D18DE73500814200D04BE7009A9F
:1032A000934200D047E718E6AE429CD902235B4226
:1032B0009C46009BE0449C4665449D429B415B428A
:1032C0001B19C918E4E6154A5A44002A00DC44E7F1
:1032D00001230025984409E665076402240BDB08F6
:1032E0001D43002390E5009E023D7200B242BF41A3
:1032F0007F423C1909190092CEE7802443462403FB
:103300001C432403064B240B7EE5009A9A42EAD321
:103310003500C4E73E0400001E040000FF03000067
:10332000FF070000F0B54F464646D6469446914604
:103330001A03120B184DC0B54C000F0392465A00E9
:10334000060080463F0B0120640DC90F520DDB0FB4
:10335000AC420AD0AA4203D0944201D157450DD0C5
:103360001CBC90469946A246F0BD3D003543F7D1BE
:10337000A242F5D1524665462A43F1D10120C84503
:10338000EED1994206D0002CEAD13E433000461ED1
:10339000B041E5E70020E3E7FF070000F0B54E4647
:1033A00045465746DE4604001800E0B516001B03EC
:1033B0001B0B324D0F034A0099464300A446B0460A
:1033C0003F0B520DC90F5B0DC00FAA4229D0AB4273
:1033D00018D0002A2AD13C43A34665426541002B00
:1033E00002D14C46264327D0002D15D1814228D04A
:1033F00002200139084001383CBC90469946A2465B
:10340000AB46F0BD4D462E432FD1002AEED13C43B2
:1034100065426541002DE9D00028EDD101204042F0
:10342000EAE73D00254320D19342EBD0002BDDD1CC
:103430004C462643DAD1DBE75B460020002BDBD08D
:10344000D6E79A420ADCE7DB4F45D1D810D00020FE
:103450004F45D1D20029E1D00800CDE74342584181
:103460000223404218400138C6E702204042C3E729
:10347000C445BDD80020C445BED2EBE7FF0700001D
:10348000F0B54E4645465746DE4604001800E0B506
:1034900016001B031B0B314D0F034A0099464300D6
:1034A000A446B0463F0B520DC90F5B0DC00FAA4298
:1034B00011D0AB4214D0002A2FD13C43A346654221
:1034C0006541002B14D14C46264311D15B460020A8
:1034D000002B17D010E03D00254312D193421CD1A0
:1034E0004D462E430DD1002A04D13C43654265412F
:1034F000002D0DD1814216D002200139084001383B
:1035000000E002203CBC90469946A246AB46F0BD86
:103510000028F7D101204042F4E7002BEAD14C46C5
:103520002643E7D1E8E79A4206DD434258410223A9
:10353000404218400138E5E79A42E9DB4F45DBD8C5
:1035400006D000204F45DDD20029E3D00800D9E79E
:10355000C445D1D80020C445D4D2F5E7FF07000008
:10356000F0B557464E464546DE46E0B598460C0354
:103570004B000600924687B0240B5B0DCF0F002B4B
:103580006CD0DD4A934200D186E0420FE400144340
:10359000802212041443D94AC50094466344009320
:1035A000002399469B46434642461E03D20F5B00CA
:1035B00050469046360B5B0D00D178E0CE4A9342E0
:1035C0001DD0CE49420F8C4600996344F6008C46CC
:1035D000164380229C44120463461643C200002016
:1035E00000930099434601318C4649467B40019344
:1035F0000F2900D97EE0C24B890059588F465246A8
:10360000009B324300D056E1BB4900268C46634400
:10361000494600930223194389460220E1E74346C5
:1036200001933400150083465B46022B5ED0032BCA
:1036300000D1F3E1012B00D018E100220024002585
:10364000019B12052243DB071A432800110007B033
:103650003CBC90469946A246AB46F0BD25000543CA
:1036600000D141E1002C00D1ADE1200000F04AFE84
:10367000010002000B391D2310005B1A31003500D8
:1036800008388440D94085400C439E48831A0093F3
:10369000002399469B4686E70500254300D01CE1A0
:1036A000082200930223002491469B467BE7524662
:1036B000324300D10AE1002E00D176E1300000F063
:1036C00021FE02000B3A1D2301009B1A52460839C5
:1036D000DA408E40164352468A40009B8949181AA8
:1036E00003008C466344002000937AE70024002501
:1036F000814AA5E72F0C2D042D0C2B00110C120470
:10370000120C53439846130028007B4399464843C4
:103710004844834640460B00000C824658467B4393
:1037200050440293814506D99A4680235B0299460C
:10373000CA4453460293030C9B4643461B040004B1
:103740001B0C9846030043440493330C99462B000A
:103750003604360C7343984633007B439A464B46F7
:103760005D435F4343465544180C4019824503D9D5
:1037700080235B029A465744050CEB190593434698
:103780001D042D0C00044019250C2404240C2700D2
:1037900057436A4390462A003B0C9A464A4361438A
:1037A000414451448344884503D980235B029846B1
:1037B00042443F040B0C3F0C0904C91927009846EA
:1037C0004B4677435C436E435D433B0C9946A419DB
:1037D0004C4442440395A64204D980235B02984698
:1037E00045440395029B3F045B441E008342804195
:1037F00023049846059B3F0C4744984676188E4212
:103800008941474440423D18A846934649428A466A
:10381000C3449F42BF4180458041039BDA449846A0
:10382000534640427F420743240C934592418A45C8
:1038300089413F19DC0D049B75021D43681E8541BB
:103840005346524249420A43BF184744F60D7F028D
:1038500035435A023C431543FB0100D4C1E001212A
:103860006A080D401543E207154364082649614480
:10387000002956DD6B0709D00F222A40042A05D003
:103880002A1DAA42AD416D4264191500E30104D519
:1038900080211E4AC900144061441D4A914200DD46
:1038A00024E76207ED08640249051543240B4A0D1D
:1038B000C6E60197B8E6104A0320944663444A4698
:1038C000009303231A43914652468AE64946012350
:1038D000194389460026012083E60C220093032326
:1038E000050091469B465EE604239946002300931B
:1038F000013300249B4656E6FF07000001FCFFFF52
:10390000189606100DFCFFFFFF030000FFFFFFFEEF
:10391000FE070000002380240025444A019324036D
:103920008EE60120401A382800DD86E61F285BDD80
:103930001F2223005242511ACB401900202803D0E5
:103940003B4A6244944025436A1E95412A000A433B
:1039500007210D000024154011425BD00F210024E7
:103960001140042953D0111D914292415242A41892
:103970000A0023024BD501220024002560E68023A3
:103980001B031C4209D01E4207D133431C0343468C
:103990001500240B254A019352E68022120314439A
:1039A0002403224A240B01974AE600F0ABFC0300F3
:1039B0001A00153220301C2A00DC84E65646083BEB
:1039C00000229E4089E600F09DFC010002001531B6
:1039D00020321C2900DC4EE63400083800258440E3
:1039E00053E6009B9C4641E71249220061442E00A9
:1039F0008D408A40C640691E8D4132432A43C440EF
:103A00005307B6D00F2111400429ACD1B1E76507A7
:103A10006402240BD2081543002211E6802212030F
:103A200014432403014A240B0AE6C046FF070000A2
:103A30003E0400001E040000F8B557464E464546B9
:103A4000DE460400E0B51F0010000B03620F4E00BD
:103A5000CD0F5B0A39031343490AE200440F2143A7
:103A6000C24C91469246C0007A008046760D520DB7
:103A7000FF0FA24200D1B4E001246740BB46BD4223
:103A800000D188E0B41AA446002C00DCB2E0002A81
:103A900000D1C5E0B54A964200D18BE280221204E3
:103AA00011436246382A00DDA1E11F2A00DD16E23B
:103AB00020270C00BF1ABC400200A0466446B84054
:103AC000E240444614430200501E82416046C14019
:103AD00022435B1A49468C1AA145924152429B1AD5
:103AE000984643461B0200D417E143465B025B0A3B
:103AF00098464346002B00D16CE1404600F002FCA2
:103B00000200083A202120004346891A9340C84009
:103B100094400343964200DD57E1961B711C1F2918
:103B200000DDCBE1202218002600521A944090407C
:103B3000CE40CB40621E9441304398460026044359
:103B4000630709D00F232340042B05D0231DA34274
:103B5000A4416442A0441C0043461B0200D4DFE0A1
:103B6000824B01369E4200D1FBE04246804BE40886
:103B70001A401300710552075B0222431B0B490DCB
:103B80000905ED071943294310003CBC90469946AE
:103B9000A246AB46F8BDB41AA446002C58DD002A54
:103BA00000D19EE0714A964200D13BE1802212048E
:103BB00011436246382A00DDC1E01F2A00DCBBE168
:103BC0000C00203AD44022006446202C04D0402728
:103BD0003F1BB940084380464446611E8C41144354
:103BE000B1E00C0004432AD0BB46BD422DD0614C4D
:103BF000A446B4446446002C5CD0941BA446002E1A
:103C000000D015E14D461D4300D1C3E1651E012CD6
:103C100000D10CE2554EB44200D1F8E1AC460EE1C1
:103C20000A00024300D136E12200013A012C00D102
:103C3000C6E14E4CA44500D1F4E0944631E701249E
:103C40006740BB46BD4200D01CE74A4CA446B44482
:103C50006446002C00D1CFE0941BA446002E00D176
:103C60005CE1424EB24200D1ECE18026360433439F
:103C70006446382C00DDB3E11F2C00DD38E220263D
:103C8000361B1C00B4404F46A0466446E7404446FD
:103C90003C434F46B7403E00771EBE413443664624
:103CA000F340C918241884429B415B429846160091
:103CB00088444EE0304A741C144200D0D6E04A4694
:103CC0001A43002E00D05BE1002A00D1A5E10A00D2
:103CD000024300D0BBE14A465907D2080A43DB0839
:103CE00027E00A00024300D174E12200013A012CCE
:103CF00005D01E4CA44500D194E0944659E74844B1
:103D0000484592415B18984604005242904443460D
:103D100002261B0200D5C4E0013E630700D011E774
:103D20004346B4465907E2080A43DB080F498C456D
:103D300040D061461B0349051B0B490D20E7014399
:103D40000C00611E8C414C444C45924152429046BD
:103D5000984443461B02E0D5044B01369E4200D0F6
:103D60009FE03100002300220AE7C046FF07000061
:103D7000FFFF7FFF01F8FFFFFE070000002A00D1D0
:103D800060E10A0002434DD04A465C07D208224354
:103D90008024DB082403234207D0CE08264204D126
:103DA0005D463300C20849070A43510FD200D208CA
:103DB00049070A431100194300D1C8E180210903D2
:103DC0000B431B03D5491B0BDAE6D549B61A0B404A
:103DD0009846B5E6200000F095FA020018321F2A36
:103DE00000DC8FE6230008388340002492E6084375
:103DF0000200501E82416DE6CA4C721C224200D065
:103E0000ADE04A461A43002EB8D1002A00D158E14D
:103E10000A00024300D059E14A465907D2080A4332
:103E2000DB0886E74A465907D2080A43DB08C1E7A0
:103E3000BA4DAA4200D11EE180252D042B436446D1
:103E4000382C5DDC1F2C00DDD0E0202567462D1BC3
:103E50004E461C00FE40AC4034434E46AE4035005A
:103E6000FB406E1EB541C91A2C434EE04A46141A57
:103E7000A1459241524290465F1A3A004746D21BF2
:103E80009046120200D58BE04246224300D030E635
:103E9000002300254DE74A465907D2080A43DB08AC
:103EA00044E742469E4B61081A4013000122144029
:103EB0000C43DA075B089846144341E61A001F3E9C
:103EC000F2401600202903D04022511A8B401C4397
:103ED000621E944100233443984600261DE70C00DF
:103EE000203AD44022006446202C04D040273F1BB7
:103EF000B940084380464446611E8C412243E9E5AF
:103F00004C4623431C00631E9C41041BA0429B4162
:103F10005B42CB1A98465D461600E2E54E461E43CC
:103F200000D1AEE0661E012C00D1FDE07B4FBC420B
:103F300000D107E1B4469BE664462022121B0C0028
:103F4000944007009040A0466446421E904162465D
:103F5000E7404446D1403C4304435B18F3E66F4CD2
:103F6000A24200D1D5E048445B1848458941494206
:103F70005B18DC0740085B08984616000443CCE653
:103F8000002A00D082E00A00024340D180230025AD
:103F90001B0313E74B07C2081A435D46CB08C5E66F
:103FA0004A46841AA0429241CB1A52429B1A984622
:103FB0005D469EE54A465907D2080A43DB08F9E602
:103FC0004A46141AA14592415B1A52429B1A9846DE
:103FD000012686E54A465907D2080A43DB08A5E6CA
:103FE0004C4623431C00631E9C415BE665461E0055
:103FF000203DEE40202C05D040252D1BAB404C46EB
:104000001C43A2465446631E9C4134437DE74B0744
:10401000C2081A435D46CB08CCE60A00024300D131
:1040200036E74B07C2081A435D46CB0881E64A468D
:10403000841AA0429241CB1A52429B1A98465D467E
:1040400001264EE54B07C2081A43CB08B2E64A46A2
:10405000141AA14592415F1A5242BA1A90461202AE
:104060006BD54A46841AA0429241CB1A52429B1AFF
:1040700098465D4664E54B07C2081A435D46CB0887
:1040800098E64B07C2081A43CB084FE60A000243E2
:1040900090D04A465C07D20814438022DB08120302
:1040A000134208D0CE08164205D1C008490708437C
:1040B00004005D463300610FE2004907D2080A435D
:1040C00078E64B07C2081A43CB0832E648445B182F
:1040D00048459241984652429044434604001B0290
:1040E00000D41AE642460E4B01261A40904614E6CA
:1040F00066461F00203EF740202C05D04026361B88
:10410000B3404C461C43A2465446631E9C413C436C
:10411000C8E511000023002232E5C046FF07000079
:10412000FFFF7FFFFE0700004A46141884429241B9
:104130005B18984652429044E9E54246224300D13A
:10414000A6E6EAE54B07C2081A43CB0832E600228E
:104150000149130014E5C046FF0700000A0030B50E
:10416000134C530009030500090B00205B0DD20F0F
:10417000A34204DD0F48834202DD0F4BD01830BD4F
:104180008020400301430D48C01A1F2808DD0C4859
:10419000C31AD9400B005842002AF0D11800EEE7AC
:1041A000084CC540A446634499400B002B43F2E7FA
:1041B000FE0300001D040000FFFFFF7F330400002A
:1041C00013040000EDFBFFFF70B5002816D0C317E5
:1041D000C5185D40C40F280000F094F8114A121A67
:1041E0000A2816DC03002E0015339E400B23181AF4
:1041F000C54053052D032D0B5B0D03E00024002368
:10420000002500261B052B43E4072343300019003B
:1042100070BD0B38854053052D0300262D0B5B0D1B
:10422000F0E7C0461E04000010B5041E10D000F0D8
:1042300069F80F4B1B1A0A2811DC0B222100121AF5
:10424000D14015300A035B058440120B5B0D01E081
:10425000002300221B0513432000190010BD22007B
:104260000B3882405B0512030024120B5B0DF1E753
:104270001E04000070B543004602C40FFE201B0E52
:10428000591C750A08420CD0E022920094466D0732
:10429000360B63441B053343E4072343280019000E
:1042A00070BD002B14D1002D1BD0280000F02AF87F
:1042B0000A281CDC0B232A001B1ADA4003001533E2
:1042C0009D400E4B12031B1A5B05160B5B0DE1E7BD
:1042D000002D09D0320B80263603094B6D0716439B
:1042E000D8E700230026D5E70026054BD2E70300D8
:1042F0002A000B3B9A400025E3E7C04689030000F3
:10430000FF0700001C2101231B04984201D3000C6D
:1043100010391B0A984201D3000A08391B09984238
:1043200001D30009043902A2105C40187047C0464E
:10433000040302020101010100000000000000006E
:1043400010B5002903D1FFF7DDFF203002E0081C83
:10435000FFF7D8FF10BDC046E021034A93688B43A6
:10436000034393607047C046000040487047704761
:104370007047704770477047704770477047704785
:104380007047704770477047704770477047704775
:104390000D4B10B51B68002B14D10C4B1A69002A69
:1043A00002D19B6B002B0DD00122094B9A60FBF7C9
:1043B000C3FEBFF34F8F074B074ADA60BFF34F8F3F
:1043C000C046FDE7012010BD940040480000504861
:1043D0000400002000ED00E00400FA0510B5FFF72E
:1043E000D7FF01280ED10E4A0E4B0F498B420FD337
:1043F00000210E4B0E4A93420DD300210D4B0E4A65
:1044000093420AD30D4B83F3088813F001FA10BDD1
:1044100001CA01C3EAE702C3EDE702C3F0E7C04601
:1044200044AD0610642800201C2B0020C000002092
:104430005C0300205C0300206428002000000120B1
:104440000A4A0300116810B5002901D1084911601A
:1044500010680849C3188B4206D913F09FFE0C233D
:1044600003600120404210BD1360FCE7840300207C
:10447000BC410020BC610020F7B5C020FF25C0264C
:104480004B4B80001A584B4CAA4332431A50C0225F
:104490001E581202264016431E501E584649C02779
:1044A0000E40C02109040E431E501E583F0636021E
:1044B000360A31003943195004301E583100C026E5
:1044C000A943314319501E5831002140114319505E
:1044D0001E583100384E31400E00C02109040E43F1
:1044E0001E501E583602360A3E43C0271E50043066
:1044F0001E58AE433E431E501E582F4F26401643B3
:104500001E501E5801913E40C0270E431E501E589B
:104510003F063602360A3E43C0271E5004301E585E
:104520002549AE433E431E501E58264016431E509A
:104530001E580E4001990E43C0211E501E580906F8
:104540003602360A0E431E5004301E58AE433E4318
:104550001E501E58184F264016431E501E583E40EF
:104560001E501E583602360A0E43C0211E5004301B
:104570001E58AE433143195019588026214011432B
:1045800019501958F6050F40C02109040F431F5058
:1045900019580902090A31431950C621890058588F
:1045A000A84358505858044022435A50F7BDC046BB
:1045B00000E100E0FF00FFFFFFFF00FF70B50D000E
:1045C000094C002A0BD0FA218900FDF711FA0023CB
:1045D000013845436560A3600533236070BD012247
:1045E00023689343F9E7C04610E000E0024B1868E7
:1045F000C003C00F7047C04610E000E0F0B585B0C2
:10460000002818D02020FFF7A7FE06216E4B1A6E57
:104610008A43110002220A431A660122196C1143CF
:104620001964196C91431964196E114319661B6E54
:104630001A400392039B654B1A68654B9A4200D05F
:10464000BCE00F2407250126624B18681A68196818
:10465000000A120B090C2040224021401C681B68F4
:10466000240D1B0E2C402B40009401939E250F27F8
:10467000AD00AC46584B12015D59BD432943654618
:104680005951043D59590C00F0218C43210011432C
:1046900059515A59BA4310435851002E0ED0922105
:1046A000072089005A58009C824314435C505A5892
:1046B000313082430198C00002435A50B0213F225A
:1046C0000A2089005C58944320434024585058588D
:1046D00020435850042004315D58954328435850D6
:1046E00080205D58284358505858A0435850BA204D
:1046F000BB2480001958A400914319501021185967
:104700009043014319512021043418599043014327
:10471000195130210434185990430143195138215B
:10472000043418599043014319513921043418595C
:104730009043014319513A210434185990430143DD
:1047400019513B21043418599043014319513C211C
:104750000434185990430143C3201951800019585B
:1047600055249143023A0A43FF211A501B4AD06C48
:1047700088432043D0646620956D8D43284390651F
:10478000C425D06E6D00884304431D20D4665C5957
:104790008C43204358515920043D5C598C4320439D
:1047A000C6245851640018598843CD390143195122
:1047B0000123116F0B43136705B0F0BD08210026DC
:1047C0000722080052E7C04600004048F81E0010CB
:1047D000CCECBCFCE81E001000140060FC1400606F
:1047E000F7B5534B534D80276B600023AB60053307
:1047F0002B6080230600504C5B022268BF021343EB
:10480000236023683B421CD1FFF7F0FE0028F8D05C
:10481000042701222B6893432B60002F0FD1002E19
:1048200000D074E08022F021D205136812680B409A
:10483000E1390A4013430637102B00D071E03800ED
:10484000FEBD0027E5E70020FFF786FD3B4BFA2180
:10485000336030688900FDF7CBF8431EFA208000F2
:10486000584300236860AB6005332B6080232268C7
:104870009B011343236080222368D201134204D199
:10488000FFF7B4FE0028F6D0052701222B689343DA
:104890002B60002FD3D1294A30683021284B904219
:1048A00025D15A688A43110010220A435A60C6E78C
:1048B0002020FFF751FD234BC9E74020FFF74CFDB7
:1048C000214BC4E76020FFF747FD204BBFE7802066
:1048D000FFF742FD1E4BBAE7A020FFF73DFD1D4B41
:1048E000B5E7C020FFF738FD1B4BB0E7FEE75A687D
:1048F0008A43DBE7C046019B01330193019B052BF3
:10490000F8DD0423A26800271343A36097E7701E15
:104910000628EBD8114EFDF743F896CBD0D5DADF59
:10492000E4000223A2681343A3600196E6E7C046B1
:104930001844E80110E000E0000040480090D00377
:10494000001000400048E8010024F40000127A0042
:1049500000093D0080841E0040420F00B028002066
:10496000030010B5FF2826D00A1F0120032A23D9EF
:1049700003292CD1002B1FD006221A48036E934323
:104980001A0004231343036601238020F024C0058A
:10499000026800682240E13C20400243102A0AD10C
:1049A000114A01290DD1012B07D1293313600823A6
:1049B00051681942FCD1002010BD002B05D02823DE
:1049C000F4E70229FBD1012BF9D12923EEE7012BD2
:1049D000D2D00620034C226E8243100002220243F2
:1049E0002266D2E70000404800500040F0B5744B0A
:1049F000744A87B0039004919360734A734E1361B5
:104A000020237268724F134373604023726804243A
:104A10001343736080237268134373606D4B7B6034
:104A20000023BB6005333B607369234200D0BBE0C9
:104A3000FFF7DCFD0028F7D0012501213B688B43FF
:104A40003B60002D00D0ACE03022F369624C934310
:104A50001A00202313438022F361A36852011343F9
:104A6000A3605E4B1A685E4B9A4200D09EE00F2016
:104A70005C4A13680340019313685B065B0F029363
:104A800013681B0A03400093136812681B0B034052
:104A900092020593920EE3685348120618401043A1
:104AA0008022E060E06812040243E26000290AD03C
:104AB0001E21E268059B8A4359000A43E2600122F5
:104AC000E1680A43E2601E20484A009B11685B00CF
:104AD000814319430123116011680B43136013686C
:104AE00043490B40019989010B431360202311684E
:104AF0000B43136013683F490B400299C9020B43F3
:104B0000136080231168DB000B4313608022F3697C
:104B100052001343F361384B384A7B600023BB607B
:104B200005333B60A36808261A4080235B021343C9
:104B3000A36004232268134323602368334204D113
:104B4000FFF754FD0028F8D0032501203B6883437C
:104B50003B60002D25D1049BFF2B01D0FFF74EFDBC
:104B6000274B28491A6803981140802292010A4372
:104B70001A60802219680A4370211A601A688A43F1
:104B8000110030220A431A60FFF72AFE051E08D1E1
:104B900003990498FFF7E4FE051E02D1FFF76CFCB1
:104BA00062B6280007B0F0BD002546E70823009351
:104BB000053B0293053329001E2201936BE7C04693
:104BC0000000041000ED00E0040000200000504848
:104BD00010E000E038D3300000004048F81E00101C
:104BE000CCECBCFCE41E0010FFFFFFC0940050485A
:104BF0003FFCFFFFFFC7FFFFD43C4900FF7FFEFFE4
:104C000098004048FFC0FFFF70B5114E05003368A3
:104C1000002B01D1012070BD01F002F90400FA203F
:104C200031688000FCF7E4FE01002000FCF7E0FEA4
:104C300000F088F8041EEDD1032DEBD801202900E7
:104C4000404200F039F8034B20001D60E3E7C04606
:104C5000B4280020B828002010B50320FFF7D4FFA7
:104C6000041E03D112F04AFA200010BD0124FBE714
:104C7000034A0449136809685B1813607047C0460B
:104C800070240020B4280020014B18687047C046EB
:104C90007024002070B50400FFF7F6FF0500631CC8
:104CA00002D0044B1B68E418FFF7EEFF401BA04244
:104CB000FAD370BDB428002030B5FF2503242A00A4
:104CC0000440E400A24089012940D243A140C3B27C
:104CD00000280ADBC0240B4B80088000C018A40009
:104CE00003591A401143015130BD0F200340083BC6
:104CF00005489B089B001B18D86902401143D961E5
:104D0000F2E7C04600E100E000ED00E0002805DB2E
:104D10001F2318401E3B8340014A13607047C04662
:104D200000E100E0002809DB1F2318401E3B834000
:104D3000034AD367BFF34F8FBFF36F8F7047C046EF
:104D400004E100E08022431E5204012093420DD270
:104D5000C021074A07485360036A09061B021B0A61
:104D60000B43036200200723906013607047C04626
:104D700010E000E000ED00E0002807DB1F23C02268
:104D800018401E3B8340024952008B507047C0467A
:104D900000E100E0704710B5FFF7FCFF10BD000018
:104DA00010B5041E01D1012010BD437FDAB2002BE3
:104DB00002D1027712F080FB022363772379002B64
:104DC0001CD118212368124A5A619A688A439A6052
:104DD00062792368002A19D1013A60211A619A6820
:104DE00000208A4361690A4380219A609A688A4355
:104DF000A1690A439A6001236377D5E72000E2683E
:104E0000A16800F007F80028E2D0CCE72269E4E7C7
:104E1000B71DC10430B51F2304000120013B06D398
:104E20000D00DD400542F9D0082A17D003D8002A2A
:104E30000BD0012006E00120102A04D0182A01D14D
:104E4000062B02D930BD072BFCD820684161182100
:104E500083688B431A4382600020F3E701200F2B05
:104E6000F3D9EFE770B5841DE37F022B04D0042350
:104E7000C363033B180070BD0E210368456C1A68BC
:104E80008A431A6001221968914319603C232B4020
:104E900015009D40016C431D4D60E2770024DC77D6
:104EA000826B1300A242E5D090472300E2E70200A4
:104EB0000120002A27D0002925D00B6813604A68FA
:104EC000D0B28022D20500280FD1D0689843D0609C
:104ED0008A68D2B2032A0BD18022D2051169194304
:104EE00011615169994351610CE0D0681843EEE7B4
:104EF000012A09D18022D2051169994311615169B2
:104F00000B43536100207047022A04D18022D2054E
:104F100011699943E4E7042AF8D00020052AF2D168
:104F20008022D20511699943116151690B43536184
:104F3000E9E70300081E01D15A6070470120FCE731
:104F400003000120002B08D01A688023DB05814272
:104F500004D199690A439A61002070479969914385
:104F60009961F9E770B58025ED050400EB690068EB
:104F70000340984205D16368002B00D0984723680E
:104F8000EB6170BD8022D2050368D0691840C01A59
:104F900043425841704780230268DB05DA6170475D
:104FA0000022F0B585B00B681C00D44001D105B0DB
:104FB000F0BD012494400294234200D1C6E04C6825
:104FC000260001941024A6430396022E0DD1072536
:104FD0000F261540AD00AE40D408A4000419276A7E
:104FE000B7430E69AE403743276203245500AC40F7
:104FF000E643B44603260768A743019C3440AC400F
:10500000039E3C43013E0460012E10D8664684682E
:105010003440CE68AE403443012684604568029C2B
:10502000A543019C2409344094402C4344609025BE
:105030008C68ED05A84243D1012C31D0022C37D029
:10504000002C06D14A4C256A9D432562656A9D4322
:105050006562019BDB0079D58027019C7F0180255B
:1050600024093C4001239027ED0593409440EE68CD
:10507000FF05B84242D19E432643019CEE60E40303
:1050800040D56C699025ED05A84267D19C43019DF0
:10509000ED0252D59025ED05A84262D11C434CE0AB
:1050A000334C656A9D436562256A2B432362D0E7D2
:1050B0002F4C256A9D432562656A2B436362C8E7CE
:1050C000012C0BD0022C11D0002CC2D1284CA56A87
:1050D0009D43A562E56A9D43E562BAE7244CE56A13
:1050E0009D43E562A56A2B43A362B2E7204CA56A03
:1050F0009D43A562E56A2B43E362AAE71F04BE4312
:105100002404B9E72C699025ED05A84220D19C43E1
:10511000C027019DBF033D40AC4680260025F60513
:10512000BC4506D190257461ED05A84213D11C43FE
:10513000012534617469002DA4D08023DB055C61F6
:105140009024E405A0420ED19C69DA6101322AE77D
:105150001D04AC43DCE71D042C43E9E71D04AC430C
:1051600095E71B049AE79C691404DC61EEE7C046EE
:105170000000504800690840411E8841C0B2704795
:10518000002A01D0816170478162FCE770B504009C
:105190000120002C3FD0250041352B78DAB2002BBE
:1051A00005D12300403320001A7012F0C5F92423E2
:1051B00001212B702368E0681A68A6688A431A6088
:1051C00061681A4A0A401A619968194A114099603F
:1051D000012821D18021090231439960586815497D
:1051E00001435960D96800200A40DA606169226988
:1051F0000A43A16909020A43DA60216AE2690A43A3
:105200001A60012219680A431A60202360642B7017
:1052100020634234207070BD8421090231439960BB
:105220000228DBD1802109015960D7E7FFFFFFF099
:10523000FF7FFFFF00800002F0B5040041342278B8
:1052400003000F000220D6B2202A18D11D004035DD
:105250002A78012A13D0242222701B68233A196865
:1052600007489143196019680140002019601968C6
:105270003943196019680A431A6026702870F0BD16
:10528000FFEFFFFF0200F0B5413214780300E5B2F2
:105290000220202C17D11C0040342678012E12D079
:1052A000223010701B6823381E68074F86431E602B
:1052B0001E6809023E4031431960196808431860AE
:1052C000002015702070F0BDFFF0FFFF034B1B6D39
:1052D0000340181A434258417047C04600004048F6
:1052E000034B9B6D0340181A434258417047C04618
:1052F0000000404802220A4B82B099680A439A6033
:1053000000220192019A052A05DD042299680A43C8
:105310009A6002B07047C046019A0132F1E7C04678
:10532000000040480421074B9A688A439A60802213
:10533000D20019681142FCD002219A688A439A600F
:105340007047C04600004048054B0222996808009B
:105350001040114202D098684007C00F7047C04605
:1053600000004048044B82B29968000C0A439A60DE
:105370001A6B104318637047000050480120054A1B
:1053800082B0116E01431166136E03400193019BBD
:1053900002B0704700004048F0B5BE4C1D00A54467
:1053A00004900A9103920021A022D2A812F026FFB5
:1053B0000C22002117A812F021FF0C2200211AA8AC
:1053C00012F01CFF182200211DA812F017FF2C223A
:1053D00000214EA812F012FF2C22002159A812F031
:1053E0000DFF68220021B8A812F008FF402200211A
:1053F00092A812F003FF2422002133A812F0FEFE2F
:10540000242200213CA812F0F9FE2422002145A804
:1054100012F0F4FE58220021A2A812F0EFFE302272
:1054200000217AA812F0EAFE3022002186A812F0AC
:10543000E5FE2C22002164A812F0E0FE2C220021BF
:105440006FA812F0DBFE0120FFF740FF00280AD012
:1054500091212022C90523A8FAF788FEA0228E49AF
:10546000D2A8FAF783FE8020C002FFF72FFF0028A2
:1054700004D00C22894917A8FAF778FE8020400250
:10548000FFF724FF002804D00C2285491AA8FAF758
:105490006DFE80204001FFF719FF002804D018227C
:1054A00080491DA8FAF762FE0420FFF70FFF0028CD
:1054B00005D090212C22C9054EA8FAF757FE0820E6
:1054C000FFF704FF002804D02C22774959A8FAF7E7
:1054D0004DFE764C636DDB0505D580214022C90564
:1054E00092A8FAF743FE636DDB0704D56822704982
:1054F000B8A8FAF73BFE0120FFF7F2FE002804D01F
:1055000024226C4933A8FAF731FE80204001FFF7CE
:10551000E7FE002804D0242267493CA8FAF726FEBB
:105520008020C001FFF7DCFE002804D0242263495C
:1055300045A8FAF71BFE1020FFF7D2FE002804D082
:1055400058225F49A2A8FAF711FE80204000FFF719
:10555000C7FE002807D00A9B002B04D130225949EE
:105560007AA8FAF703FE8020C000FFF7B9FE0028F2
:1055700004D03022544986A8FAF7F8FD8020800331
:10558000FFF7AEFE002805D082212C22C90564A8B1
:10559000FAF7ECFD80200004FFF7A2FE002804D0FB
:1055A0002C224A496FA8FAF7E1FD494E4949B368F0
:1055B000494A0B934B680C93136815910D93002384
:1055C00007922BA91A000798C032920080589A00BF
:1055D00001335050082BF5D1404B1B680E93404BC4
:1055E0001A685B680F921093236B1193A36B12934D
:1055F000236D1393A36D1493236EDB0701D4FFF780
:10560000BDFE384FBA6A93003ED48023BA6A1B06A7
:1056100013430122BB62236E134202D1236E9343D4
:105620002366049B032B09D1102223680893236867
:1056300013422DD123680C3A934323602A4B1B68F5
:105640000293503B0193294B1A000693019B196862
:10565000099302C2029904339942F8D1244A254B96
:1056600019601169039B906B2B43000489B20143BD
:1056700018000840150003900B423DD0002528007B
:10568000FB239B009D44F0BDBB6A5B005B08C0E749
:105690002368D1E714FCFFFF000070480000604859
:1056A000000030480000204800001048000040483A
:1056B0000020004000200041003000410070004107
:1056C00000600041005000410040004100100041D6
:1056D00000ED00E00010004000E100E020ED00E0FF
:1056E00010E000E0001800600000041078240020A2
:1056F00000005048742400201368136004233269AA
:1057000013433361FFF720FE039B059300280FD05E
:10571000FFF708FEE022A36893431A0020231343F7
:10572000A360802322689B01134323600123059318
:10573000FAF7E8FC042332699A433261049A032A97
:1057400013D1089A1A4202D022681343236010230F
:10575000089A1A4209D0A96ADB480140A962EA6A9C
:105760000240EA62226813432360D84B9D68002DF3
:1057700000D140E20699019B04C90691190004C1B9
:10578000099A01919342F5D1029AD14B2BA81A6044
:105790000B9B0C9AB360159B5A60079B0D9A1A607D
:1057A00000239A0011581A00079DC032920001335D
:1057B000A950082BF5D1119B01202363129BA363F1
:1057C000139B2365149BA365FFF780FD002813D06E
:1057D0009120202223A9C005FAF7C8FC0023A022AB
:1057E000BC48D2A9D393D893DD93E293E793EC938B
:1057F000F193F693FAF7BAFC8020C002FFF766FD3A
:10580000002804D00C22B44817A9FAF7AFFC802076
:105810004002FFF75BFD002804D00C22AF481AA914
:10582000FAF7A4FC80204001FFF750FD002804D0C7
:105830001822AB481DA9FAF799FC0420FFF746FD92
:1058400000280BD09020569BC0050362579B2C224A
:105850004362539B4EA94361FAF788FC0820FFF787
:1058600035FD00280AD0619B9E482C220362629B72
:1058700059A943625E9B4361FAF778FC9A4C636DC9
:10588000DB0505D58020402292A9C005FAF76EFC01
:105890000122636D13420AD0B89E944DB89B280034
:1058A0009343B8A96732B893FAF760FC2E600120E1
:1058B000FFF716FD002810D04022339E8C4D339BFD
:1058C0002800934333A9343A3393FAF74FFC142258
:1058D000884837A9FAF74AFC2E6080204001FFF77C
:1058E000FFFC002810D040223C9E834D3C9B2800AA
:1058F00093433CA9343A3C93FAF738FC14227F488E
:1059000040A9FAF733FC2E608020C001FFF7E8FCC5
:10591000002810D04022459E794D459B2800934396
:1059200045A9343A4593FAF721FC1422754849A950
:10593000FAF71CFC2E601020FFF7D2FC002804D0E0
:1059400058227148A2A9FAF711FC80204000FFF705
:10595000C7FC002810D00A9B002B0DD101227A9E93
:105960006A4D7A9B280093437AA923327A93FAF7F7
:10597000FDFB859BEB622E608020C000FFF7B0FC32
:1059800000280DD00122869E614D869B28009343FE
:1059900086A923328693FAF7E9FB919BEB622E608E
:1059A00080208003FFF79CFC00280CD08225012278
:1059B000649E649BED05934328001F3264A96493A1
:1059C000FAF7D4FB2E6080200004FFF789FC002842
:1059D0000BD001226F9E4F4D6F9B280093436FA900
:1059E0001F326F93FAF7C2FB2E600125236E2B4204
:1059F00008D1FFF7C3FCBB6AAB40EB40BB62236E30
:105A0000AB432366AF21444B01228025186849002F
:105A1000FEF7D4FDAD0223682B4246D1FEF7E6FD2A
:105A20000028F8D00425002211001000FEF7C6FD62
:105A3000059B002B3BD1384B0122C82180261868DA
:105A4000FEF7BCFDF6012368334204D1FEF7CEFD1C
:105A50000028F8D00525002211001000FEF7AEFD49
:105A6000236EDB076FD58022F021D2051368126800
:105A70000B40E1390A401343102B64D10622236EF8
:105A800026491340023B5A425341234A5B42106865
:105A90000B405B18224A98424DD0224EB04247D16B
:105AA0008B420BD12A23136045E00025BBE7FFF7AB
:105AB00021FC23681C4A13402360D1E71B498B4219
:105AC00039D12923EFE7C046FFCFFFFF04000020B4
:105AD0007424002000007048000060480000304836
