:020000041004E6
:10000000000001206D380410ED370410EF370410A4
:10001000AA5555AA45554C420000000000000000BA
:10002000000000000000000000000000D12D0410BE
:100030000000000000000000D32D0410D52D041096
:10004000F1370410F3370410F5370410F7370410B4
:10005000F9370410ED2D0410FB370410FD370410A0
:10006000FF3704100138041003380410192E04104F
:100070000538041007380410093804100B38041030
:10008000FD2D04100D3804100F3804101138041021
:1000900013380410153804101738041019380410D8
:1000A0001B3804101D380410000000000000000080
:1000B0000000000000000000000000000000000040
:1000C000EFF31482EFF30981154880F31488BFF32E
:1000D0006F8FF0B543464C4655465E466746F8B4CA
:1000E000104CEFF30883636006B4BFF34F8F30BF4B
:1000F000C046C0460B4C646884F3088882B003BCD9
:10010000F8BC9846A146AA46B346BC46F0BC04BC1F
:1001100080F3098881F31488BFF36F8F1047C046BE
:10012000000000000400002002B4714649084900A4
:10013000095649008E4402BC7047C04602B471465D
:1001400049084900095C49008E4402BC7047C0461A
:1001500003B47146490840004900095E49008E44D5
:1001600003BC704703B47146490840004900095A6E
:1001700049008E4403BC7047002243088B4274D36D
:1001800003098B425FD3030A8B4244D3030B8B4298
:1001900028D3030C8B420DD3FF22090212BA030CA1
:1001A0008B4202D31212090265D0030B8B4219D382
:1001B00000E0090AC30B8B4201D3CB03C01A5241A2
:1001C000830B8B4201D38B03C01A5241430B8B42EA
:1001D00001D34B03C01A5241030B8B4201D30B03D3
:1001E000C01A5241C30A8B4201D3CB02C01A5241FA
:1001F000830A8B4201D38B02C01A5241430A8B42BD
:1002000001D34B02C01A5241030A8B4201D30B02A5
:10021000C01A5241CDD2C3098B4201D3CB01C01ABF
:10022000524183098B4201D38B01C01A52414309C9
:100230008B4201D34B01C01A524103098B4201D3B7
:100240000B01C01A5241C3088B4201D3CB00C01A24
:10025000524183088B4201D38B00C01A524143089C
:100260008B4201D34B00C01A5241411A00D20146C1
:10027000524110467047FFE701B5002000F0F0F84A
:1002800002BDC0460029F7D076E7704703460B430E
:100290007FD4002243088B4274D303098B425FD37F
:1002A000030A8B4244D3030B8B4228D3030C8B42AB
:1002B0000DD3FF22090212BA030C8B4202D3121291
:1002C000090265D0030B8B4219D300E0090AC30B66
:1002D0008B4201D3CB03C01A5241830B8B4201D313
:1002E0008B03C01A5241430B8B4201D34B03C01AFC
:1002F0005241030B8B4201D30B03C01A5241C30A74
:100300008B4201D3CB02C01A5241830A8B4201D3E4
:100310008B02C01A5241430A8B4201D34B02C01ACE
:100320005241030A8B4201D30B02C01A5241CDD273
:10033000C3098B4201D3CB01C01A524183098B42BE
:1003400001D38B01C01A524143098B4201D34B01A7
:10035000C01A524103098B4201D30B01C01A52410A
:10036000C3088B4201D3CB00C01A524183088B4291
:1003700001D38B00C01A524143088B4201D34B007A
:10038000C01A5241411A00D20146524110467047EC
:100390005DE0CA0F00D04942031000D340425340F1
:1003A00000229C4603098B422DD3030A8B4212D3B1
:1003B000FC22890112BA030A8B420CD389019211E3
:1003C0008B4208D3890192118B4204D389013AD020
:1003D000921100E08909C3098B4201D3CB01C01AF5
:1003E000524183098B4201D38B01C01A5241430908
:1003F0008B4201D34B01C01A524103098B4201D3F6
:100400000B01C01A5241C3088B4201D3CB00C01A62
:10041000524183088B4201D38B00C01A5241D9D27A
:1004200043088B4201D34B00C01A5241411A00D2FB
:100430000146634652415B10104601D34042002BF7
:1004400000D54942704763465B1000D3404201B576
:10045000002000F005F802BD0029F8D016E770472B
:100460007047C0468446101C62468C46191C634681
:1004700000E0C0461FB501F099FC002801D400211E
:10048000C8421FBD10B501F0E3FB4042013010BD72
:1004900010B501F08BFC002801DB002010BD01200D
:1004A00010BDC04610B501F081FC002801DD002020
:1004B00010BD012010BDC04610B501F005FC00289C
:1004C00001DC002010BD012010BDC04610B501F0B8
:1004D000FBFB002801DA002010BD012010BDC04642
:1004E0008446081C6146FFE71FB500F0B1F90028FB
:1004F00001D40021C8421FBD10B500F035F94042BB
:10050000013010BD10B500F0A3F9002801DB002078
:1005100010BD012010BDC04610B500F099F90028AB
:1005200001DD002010BD012010BDC04610B500F057
:1005300043F9002801DC002010BD012010BDC04699
:1005400010B500F039F9002801DA002010BD0120B3
:1005500010BDC046002B11D1002A0FD1002900D1B7
:10056000002802D00021C943081C07B4024802A198
:100570004018029003BDC046E9FEFFFF03B4684681
:1005800001B5029800F024F8019B9E4602B00CBC15
:100590007047C04670B500220C4B04000D00FFF7F9
:1005A00095FF002804D12000290002F08BFA70BDCD
:1005B000064B00222000290001F0D4FE02F082FA4E
:1005C00080231B069C466044F1E7C0460000E041E2
:1005D000F0B557464E464546DE46E0B504000D00F0
:1005E0009246994683B08B4230D82DD0494650462A
:1005F00002F0E2FB29000600200002F0DDFB331AC6
:100600009846203B9B4633D45A4653469340424635
:100610001F00534693401E00AF423AD8AF4200D16C
:1006200078E05B46A41BBD41002B00DA75E0002298
:1006300000230092019301235A4693400193012322
:1006400042469340009328E08242CFD90022002303
:10065000009201930C9B002B01D01C605D60009800
:10066000019903B03CBC90469946A246AB46F0BD0A
:10067000424620239B1A5246DA40414613004A461E
:100680008A40170042461F43534693401E00AF4224
:10069000C4D900220023009201934346002BD9D0F5
:1006A000FB0772081A4346467B080EE0AB4201D1B5
:1006B000A2420CD8A41A9D41012024196D410021A9
:1006C000013E24184D41002E06D0AB42EED9013E2A
:1006D00024196D41002EF8D1009801995B4600194C
:1006E0006941002B24DB2B005A464446D3402A00A4
:1006F000E2401C005B461500002B2ADB26009E40D2
:10070000330026004746BE403200801A99410090CF
:1007100001919FE7A342BCD883E7424620230021F2
:100720009B1A0022009101920122DA40019286E791
:10073000424620239B1A2A0046469A402300F34053
:10074000444613432A00E2401C005B461500002B80
:10075000D4DA42462F002023260097409B1ADE4021
:100760003B003343CDE7C04670B542004E024C001B
:1007700045026D0A120EC30F760A240EC90FFF2A16
:100780000FD0FF2C11D00120A24200D070BDB54285
:10079000FCD18B420DD0002AF8D12800451EA8417B
:1007A000F4E70120002DF1D1EBE70120002EEDD17F
:1007B000E9E70020EAE7C046F0B5420046024D02F4
:1007C0004C00C30F760A120E6D0A240EC80FFF2AC2
:1007D0001FD0FF2C10D0002A1FD171427141002C74
:1007E00001D1002D1ED000290ED183421ED002213E
:1007F000581E08400138F0BD002D26D1002AF4D142
:10080000714271410029F0D00028F4D1012040420A
:10081000F1E7002E19D1FF2CEED0002CE5D1002DF0
:10082000E3D1E4E70020002EE5D0E0E7A24205DCBA
:10083000EADBAE4202D8E7D30020DCE74142414187
:100840004842022108400138D5E702204042D2E761
:10085000F0B5420046024D024C00C30F760A120E5C
:100860006D0A240EC80FFF2A0DD0FF2C0FD0002ACE
:1008700023D171427141002C0FD1002D0DD10020E8
:10088000002E14D00DE0002E10D1FF2C15D1002D1C
:100890000CD1002A03D171427141002908D1834251
:1008A00010D00221581E0840013800E00220F0BD9F
:1008B0000028FCD101204042F9E7002CEFD1002DA7
:1008C000EDD1EEE7A24205DCF2DBAE4202D8EFD377
:1008D0000020ECE7414241414842022108400138F2
:1008E000E5E7C046F8B557464E464546DE46440263
:1008F000E0B545000F1C640A2D0EC60F002D47D031
:10090000FF2D4DD0002380209A469B46E400C00472
:1009100004437F3D7802430A99467A00FB0F9846CC
:10092000120E4B4644D0FF2A11D0D8008023DB049E
:100930000343994600207F3AAD1847465346774017
:10094000691C0F2B3FD8724A9B00D3589F46FF3536
:10095000002B00D079E0524602231A43924602202F
:10096000EBE747464C4683465B46022B28D0032BD9
:1009700000D1C6E0012B4FD100200024C005FF07A5
:10098000204338433CBC90469946A246AB46F8BD4E
:10099000002C71D104239A46033B00259B46B9E7FE
:1009A000002C63D108239A46063BFF259B46B1E7FE
:1009B000002B50D1524601331A4392460120BCE726
:1009C000FF200024DAE74846260C2404220C040405
:1009D000240C4B4620001B0C504374435A435E4387
:1009E0001219030C9B189C4203D980225202944690
:1009F000664400041A04000C12189401601E84411D
:100A00001B0C920E9B1914439B011C431B0172D5B6
:100A10000120630804401C4308007F3000283CDDAF
:100A2000630704D00F232340042B00D00434230198
:100A300003D580310800374B1C40FE28C0DCA401E0
:100A4000640AC0B29AE737008EE7524603231A437E
:100A50009246032071E7484602F090F94A46431F48
:100A60009A402D1A91460020763D66E70C239A465F
:100A7000093BFF259B464DE7200002F07FF97625D4
:100A8000431F9C4000236D429A469B462D1A41E726
:100A900080240027FF20E40370E701231B1A1B2B8F
:100AA00000DD69E79E3120008C40D840631E9C41E8
:100AB0000443630704D00F232340042B00D00434E5
:100AC00063011AD50120002458E78020C0030442A6
:100AD00009D04B46034206D14C46044364024746C4
:100AE000FF20640A4AE78020C00304436402370001
:100AF000FF20640A42E729008EE7A4010020640A6F
:100B00003CE78020C00304436402FF20640A35E709
:100B100040870510FFFFFFF7F0B54646D6464F4623
:100B200043025B0ADA0094464A02C0B54400560A02
:100B3000051CB046240E4E0092091F00200092466C
:100B4000ED0F360EC90FFF2E00D17FE0012251407C
:100B50008D4251D0A21B9146002A00DC7EE0002E7F
:100B600000D199E0FF2C00D18CE080235246DB04B9
:100B70001A4392464A4601231B2A08DC5346202189
:100B8000D340891A52468A40511E8A411343624615
:100B9000D31A5A0100D4F3E09B019E09300002F001
:100BA000EDF805388640844200DDF7E03200041B92
:100BB00020200134E240041BA64033005E1EB341F6
:100BC000002413435A0704D00F221A40042A00D0ED
:100BD00004335A0100D4D6E0621CFE2C00D1DAE0C6
:100BE0009B015F0AD0B2C0053843ED0728431CBC07
:100BF00090469946A246F0BDA21B9146002A63DDAD
:100C0000002E00D199E0FF2C3CD080235246DB041B
:100C10001A4392464A4601231B2A08DC53462021E8
:100C2000D340891A52468A40511E8A411343634475
:100C30005A0100D4A4E00134FF2C00D1ABE0012222
:100C400097491A405B080B401343BBE7002A32D098
:100C50008D4235D0FF2252429146A1444A46002A95
:100C600051D0301B002C00D09CE06346002B00D1FB
:100C7000DFE00138002800D1F7E0FF2E00D099E036
:100C80000D004346002B00D185E08027FF031F4362
:100C90007F02FF207F0AA6E75246002A74D0012275
:100CA00052429046C1444A46002A00D1C8E0FF2C77
:100CB00000D05FE7E6E701225140A94200D049E7B2
:100CC000FF2252429146A1444A46002A43D0311B9A
:100CD000002C00D18CE0FF2E00D192E080236246F0
:100CE000DB041A43944601231B2909DC20206346B8
:100CF0006246CB40411A8A401100481E81410B4395
:100D00003400534494E7FE22661C324264D1002C26
:100D100000D082E06346002B00D1ABE05346002BAD
:100D200000D160E7634652469B1A5A0100D4AAE0FC
:100D3000634652460D00D31A44E75246002A23D098
:100D4000012252429046C1444A46002A75D0FF2CE7
:100D500000D05FE796E7FE260134264253D10028F3
:100D600072D16346002B00D193E05346002B00D193
:100D700039E7634400245A0102D54A4A013413403A
:100D80005A0700D020E7DB08FF2C00D17AE75B028E
:100D90005F0AE0B227E7FF20002724E7414B241A2F
:100DA00033400FE7FF2E00D16AE780236246DB0461
:100DB0001A43944601231B2809DC2024634662461B
:100DC000C340201A82401000441EA04103435246F3
:100DD0000D003400D31ADCE6634652469E1A7301B6
:100DE00017D4002E00D0D9E6002500200027FAE60F
:100DF0006346002B44D0013900294CD0FF2E00D08F
:100E000071E743463EE7FF2CC5D052466244530883
:100E1000B6E763460D00D61AC0E66246002A16D130
:100E20005346002B00D02BE780270025FF20FF032F
:100E3000D9E60D0043463400A6E753466344F7E67F
:100E4000634652469B1AA4E66246002AD9D052460F
:100E5000002A00D116E78022D203134200D111E705
:100E60004046104200D00DE70AE752460D0034001C
:100E7000D31A8EE65346002B08D00D004746B2E643
:100E80004346340080E7002B00D079E70025002797
:100E9000A9E64746A7E6534634006344C8E6C04681
:100EA000FFFFFF7DFFFFFFFB70B5002813D0C317C6
:100EB000C5185D40C40F280001F060FF9E230100AB
:100EC0001B1A962B0FDC082801DD08398D406D02B6
:100ED0006D0AD8B202E0002400200025C005284396
:100EE000E407204370BD992B0BDD05222E00121A5A
:100EF000D64002001B3295402800451EA84135000F
:100F00000543052901DD4A1F95402A00084E32405D
:100F1000680709D00F202840042805D0043250016A
:100F200002D59F2332405B1A9201550AD8B2D5E709
:100F3000FFFFFFFB70B5051E0ED001F01FFF9E23C3
:100F400004001B1A962B0CDC082801DD083CA54088
:100F50006D026D0AD8B201E000200025C0052843CB
:100F600070BD992B09DD020029001B3291404A1EF9
:100F700091410522121AD5400D43052C01DD621F57
:100F800095402900084E31406A0709D00F202840BB
:100F9000042805D004314A0102D59F2331401B1B90
:100FA00089014D0AD8B2D9E7FFFFFFFBF0B54F46E4
:100FB000D64646460D0001001800C0B517002B03A9
:100FC0005A0A4B0F1343CA00914602036E004100B8
:100FD000520AEC0F7D0F1543760D490DC00F824666
:100FE000AC46FF00721A844200D198E0002A00DC6F
:100FF00081E0002900D1B6E0C9498E4200D172E1FA
:1010000080212800090408438446382A00DD5EE177
:101010001F2A00DDEEE1202039006546801A874056
:10102000D14085400D4339004F1EB9416746D74036
:101030002943DB1B4A46551AA945894149425B1A97
:10104000984643461B0200D4CCE043465B025B0A51
:1010500098464346002B00D12CE1404601F08EFE1D
:1010600001000839202228004346521A8B40D04004
:101070008D4003438E4200DD17E18E1B721C1F2A38
:1010800000DDA7E1202118002E00891A8D4088403C
:10109000D640D340691E8D41304398460026054313
:1010A0006B0709D00F232B40042B05D02B1DAB421F
:1010B000AD416D42A8441D0043461B0200D494E09C
:1010C000974B721C9A4200D19DE04146954BED082A
:1010D00019400B00520549075B0229431B0B520DB7
:1010E00012051343E4072343080019001CBC904673
:1010F0009946A246F0BD002A43D08A1B002E00D09C
:101100002AE14C461C4300D1D1E1541E012A00D1F2
:101110001FE2834DAA4200D172E2220023E1002A9D
:1011200000DC98E0002942D07D498E4200D1DAE00F
:1011300080212800090408438446382A00DD29E17B
:101140001F2A00DC87E1110065462039CD40202AA6
:1011500004D040206146821A91400F4339004F1E4F
:10116000B9410D431BE12900394300D1B5E0511EBF
:10117000012A00D1ABE16A48824200D1B2E10A0003
:1011800043E76949751C0D4200D0CFE0002E00D026
:1011900093E14946194300D1D1E16146394300D07A
:1011A000E3E149465807C9080143DB0826E0290066
:1011B000394300D191E0511E012A05D0584882429E
:1011C00000D18FE10A00B8E73D004D444D4589410B
:1011D0006344984649428844434602261B0200D590
:1011E000EBE0013E6B0700D05CE74346E9085A0795
:1011F00011433200DB084A48824221D01B035205CA
:101200001B0B520D6CE70023002169E72A003A43CB
:1012100069D04A465807D108DA0880231B030843DF
:101220001A4207D02900ED081D4203D12A00FF0809
:1012300048073843430FC1005B07C908194313002F
:101240000A001A4300D113E28022120313431B0346
:10125000334A1B0B44E7002A4BD08A1B002E00D1D7
:10126000E7E02F48814200D195E18020000403434C
:10127000382A00DD43E11F2A00DDDBE120201D00CC
:101280004E46801A8540D64035434E468640300053
:10129000D340461EB0419C440543ED19BD429B41DD
:1012A0005B42634498460E007FE01E4A761A134064
:1012B0009846F5E6280001F061FD010018311F296C
:1012C00000DCCFE62B00083883400025D2E66246DA
:1012D0003A4311004F1EB941ACE649465807C908C8
:1012E0000143DB0887E749465A07C9081143DB0871
:1012F000A6E70D49701C084200D0BBE0002E00D0CC
:1013000014E14946194300D175E12900394300D061
:101310007EE149465807C9080143DB086EE7C0462D
:10132000FF070000FFFF7FFFFE0700004946CD1BBF
:101330006146581AA94589414942884601004046FC
:10134000091A8846090200D5A6E04146294300D083
:101350007FE60023002451E7C74CA14200D1C7E03B
:10136000802424042343382A54DC1F2A00DDCCE0E7
:1013700020244846A41A1D004E46A040D640A54051
:101380000400D34062463543661EB441D31A9C46DE
:10139000254344E062463A4315006F1EBD414D446B
:1013A0004D45894149428846984443461B0200D432
:1013B00018E7B14B01369E4249D04246AF4B01215E
:1013C0001A4013006A080D401543D9075B08984678
:1013D0000D4365E618001F3EF040202A03D040214F
:1013E0008A1A93401D43691E8D41002300269846AA
:1013F0000543F7E6110065462039CD40202A04D088
:1014000040206146821A91400F4339004F1EB94176
:1014100029430FE64A4613431D006B1E9D417D1B69
:10142000AF429B4162465B42D31A984654460E0037
:1014300007E64846184300D1B3E0501E012A00D108
:101440000DE18D4DAA4200D1A5E0020010E7320067
:101450000023002144E620213800891A65468F4088
:101460008D40D040791E8F4105433D436746D740AC
:10147000DB1994E7804A904200D1ECE039004944FE
:1014800049459241634452429B18DD0749085B0875
:10149000984606000D43A5E64A46BD1AAF4289416B
:1014A00062464942D31A5B1A98465446D1E56C0706
:1014B000F9082143EB0804009DE64A461A4375D11A
:1014C0006146394314D1802300241B03BCE64A46FD
:1014D000D51BA9458941624649429B1A5B1A984629
:1014E0000126AEE54A46D1085A071143DB08A7E6B4
:1014F0006346F9085A0754461143DB08A0E64A46FA
:1015000013431D006B1E9D41C7E614001E00203CC6
:10151000E640202A05D04024A21A93404A461A43A6
:1015200091464D466B1E9D41354378E74A461A4326
:1015300000D06BE66B07F9081943EB0880E66146BB
:10154000394354D06346F9085C072143DB080400A3
:1015500054E64A46BD1AAF42894162464942D31A0F
:101560005B1A9846040001266BE54A46D51BA9453F
:101570008941624649429A1A521A9046120232D55D
:101580004A46BD1AAF42894162464942D31A5B1AA4
:101590009846040084E56346F9085A071143DB08BE
:1015A0004EE6F90868070143EB0824E662463A4331
:1015B00000D198E64A46D1085A071143DA08802339
:1015C0001B031A4208D06046C5081D4204D1544688
:1015D0002A00F908430719434B0FC9005B07C908E4
:1015E000194313002CE64146294300D0FAE50023B5
:1015F0000A00002402E66B07F9081943EB08FDE531
:101600006346F9085B07194363460400DB0817E6E5
:101610003D004D4463444D458941984649428844C4
:1016200043461B0200D4DDE54246144B01261A4016
:101630009046D7E510001E002038C640202A05D06D
:101640004020821A93404A461A4391464D466B1EEB
:101650009D41354321E602000023002140E54A4632
:10166000D519BD4289416344984649428844B3E54F
:101670000021014A0B0033E5FF070000FFFF7FFF59
:10168000F0B557464E464546DE46E0B58146050074
:101690000C03480092461F0085B0240B400DCE0F6E
:1016A000002859D0874B984200D198E06B0FE40096
:1016B0001C4380231B0423439846834BED009B4629
:1016C00000239946834400933C037B005046240B3F
:1016D0005B0DFF0F002B67D07A4A934218D07A49EE
:1016E000420F8C46E400594614438022634412049E
:1016F000CB1A14439B46C200002033007B409A461D
:101700004B460F2B00D9EFE070499B00CB589F460A
:101710006F4B52469C462243E344002A00D095E09A
:10172000494602231943894600240220E5E70023A5
:101730000024002552461B052343D20713432800EB
:10174000190005B03CBC90469946A246AB46F0BD98
:10175000002400255B4BEDE74B462343984600D120
:1017600089E0002C00D1E0E1200001F007FB01003E
:1017700002000B391D235B1A49461000D940083876
:1017800084400B004D4623439846854051483C0316
:10179000831A9B460023994600937B005046240BF6
:1017A0005B0DFF0F002B97D15246224355D0002CE2
:1017B00000D1CAE1200001F0E1FA02000B3A1D233A
:1017C00001009B1A52460839DA408C4014435246B5
:1017D0008A40414B58449B46834400208DE74B464A
:1017E0002343984640D108239946063B002583466B
:1017F000009369E7B246009B022BA9D0032B00D1CE
:1018000011E2012B93D0354A5A44002A00DC3CE116
:101810006B0700D0A7E1ED084346DB0106D5424641
:101820002F4B1A4090468022D2005A442D4B9A42A8
:101830008EDC4346520558075C020543240B530DCA
:1018400078E7BA46A04615000090D4E74A4603233D
:101850001A439146032052464FE749460123194354
:1018600089460024012048E70C239946093BA046FD
:101870008346009328E70423994600239B460133BF
:101880000025009320E7002380249A4600250D4B75
:1018900024034FE7802341461B03194208D01C4212
:1018A00006D11C432403BA461500064B240B41E71E
:1018B0008024434624031C432403B246014B240BDB
:1018C00038E7C046FF07000001FCFFFF80870510D6
:1018D00001F8FFFF0DFCFFFFF3030000FF03000012
:1018E000FFFFFFFEFE070000444500D216E100D1D5
:1018F00011E101235B429C462E0040460025E34453
:101900002302140E1C431B0C994623041F0C1202C5
:10191000494600920197FEF7B5FC02007A430B049A
:10192000310C804619438A420BD901235B429C4605
:101930000919E0448C4204D88A4202D9831E984691
:101940000919881A4946FEF79DFC09048C463104A2
:101950006646019A090C4243030031438A4204D986
:101960000919013B8C4200D811E1891A4246009EB8
:1019700012041A43330C1F00100C904602931304F8
:101980003204160C32001B0C5A4303967B43464329
:101990007843170CBC469B1963449E4203D98026AA
:1019A0007602B44660441E0C301816041B04360C34
:1019B0009E19814200D29CE000D197E0AE1B091A2B
:1019C000B54280414042081A844200D111E14946A3
:1019D000FEF758FC019A0B044243310C05001943F1
:1019E0008A4207D90919013D8C4203D88A4201D99C
:1019F000851E0919881A4946FEF744FC09048C46DD
:101A000031046646019A090C4243030031438A427D
:101A100007D90919013B8C4203D88A4201D9831E98
:101A20000919039E891A32002D041D43029F2B04BD
:101A30001B0C5A437B439C46280C4643130CB4446E
:101A4000634478439E4203D980267602B4466044BC
:101A50001E0C12041B04120C30189B18814206D372
:101A600002D001231D43CEE6002B00D1CBE6611846
:101A70006E1EA14200D2A4E0814200D2C9E000D192
:101A8000D9E03500EDE701256D420121891A382999
:101A900000DD4CE61F2900DC7FE01F235B429A1A21
:101AA0004346D340202904D04446654A5A449440D2
:101AB00025436A1E954107222B43150000241D4033
:101AC0001A4200D1A1E00F2200241A40042A00D1BA
:101AD00098E01A1D9A429B415B42E41813002202CF
:101AE00000D48FE001230024002523E6B54200D373
:101AF00064E743465A1E009B9C4665441F009D4276
:101B00009B415B421B19C9188C423AD2884263D868
:101B100060D0904652E7AA4200D9EAE64346DE0783
:101B200058086B081E43ED07EAE6484601F026F91F
:101B300001000200153120321C2900DC1AE64B4658
:101B4000083883400025984620E601F017F9030085
:101B50001A00153220301C2A00DC30E65446083BBF
:101B600000229C4035E60F232B40042B00D152E687
:101B700005235B42AB429B4104355B42ED08984430
:101B80004AE68C42C5D1AF42C0D9904616E78A4298
:101B900000D8EAE6831E0919E7E62A4A28005A44D3
:101BA000434695409340C8406A1E954144460343CE
:101BB0002B43CC405A0792D00F221A40042A88D1D6
:101BC0008DE73500814200D04BE7009A934200D068
:101BD00047E718E6AE429CD902235B429C46009B35
:101BE000E0449C4665449D429B415B421B19C918D9
:101BF000E4E6154A5A44002A00DC44E701230025A4
:101C0000984409E665076402240BDB081D430023A2
:101C100090E5009E023D7200B242BF417F423C19F6
:101C200009190092CEE78024434624031C43240371
:101C3000064B240B7EE5009A9A42EAD33500C4E7AE
:101C40003E0400001E040000FF030000FF07000028
:101C5000F0B54F464646D646944691461A03120BB7
:101C6000184DC0B54C000F0392465A00060080463E
:101C70003F0B0120640DC90F520DDB0FAC420AD09F
:101C8000AA4203D0944201D157450DD01CBC9046C6
:101C90009946A246F0BD3D003543F7D1A242F5D1A9
:101CA000524665462A43F1D10120C845EED19942FA
:101CB00006D0002CEAD13E433000461EB041E5E795
:101CC0000020E3E7FF070000F0B54E4645465746C3
:101CD000DE4604001800E0B516001B031B0B324D56
:101CE0000F034A0099464300A446B0463F0B520DED
:101CF000C90F5B0DC00FAA4229D0AB4218D0002AF1
:101D00002AD13C43A34665426541002B02D14C4693
:101D1000264327D0002D15D1814228D00220013939
:101D2000084001383CBC90469946A246AB46F0BDFF
:101D30004D462E432FD1002AEED13C4365426541EA
:101D4000002DE9D00028EDD101204042EAE73D0016
:101D5000254320D19342EBD0002BDDD14C462643C6
:101D6000DAD1DBE75B460020002BDBD0D6E79A42D6
:101D70000ADCE7DB4F45D1D810D000204F45D1D247
:101D80000029E1D00800CDE74342584102234042F8
:101D900018400138C6E702204042C3E7C445BDD819
:101DA0000020C445BED2EBE7FF070000F0B54E4669
:101DB00045465746DE4604001800E0B516001B03F2
:101DC0001B0B314D0F034A0099464300A446B04611
:101DD0003F0B520DC90F5B0DC00FAA4211D0AB4291
:101DE00014D0002A2FD13C43A34665426541002B05
:101DF00014D14C46264311D15B460020002B17D04E
:101E000010E03D00254312D193421CD14D462E4394
:101E10000DD1002A04D13C4365426541002D0DD10E
:101E2000814216D0022001390840013800E002202A
:101E30003CBC90469946A246AB46F0BD0028F7D17F
:101E400001204042F4E7002BEAD14C462643E7D17B
:101E5000E8E79A4206DD43425841022340421840D7
:101E60000138E5E79A42E9DB4F45DBD806D0002090
:101E70004F45DDD20029E3D00800D9E7C445D1D8C9
:101E80000020C445D4D2F5E7FF070000F0B557465F
:101E90004E464546DE46E0B598460C034B0006002C
:101EA000924687B0240B5B0DCF0F002B6CD0DD4A20
:101EB000934200D186E0420FE400144380221204D2
:101EC0001443D94AC50094466344009300239946BD
:101ED0009B46434642461E03D20F5B005046904647
:101EE000360B5B0D00D178E0CE4A93421DD0CE492F
:101EF000420F8C4600996344F6008C4616438022BC
:101F00009C44120463461643C200002000930099CB
:101F1000434601318C4649467B4001930F2900D945
:101F20007EE0C24B890059588F465246009B32438F
:101F300000D056E1BB4900268C46634449460093D5
:101F40000223194389460220E1E743460193340006
:101F5000150083465B46022B5ED0032B00D1F3E1D4
:101F6000012B00D018E1002200240025019B12055E
:101F70002243DB071A432800110007B03CBC9046FF
:101F80009946A246AB46F0BD2500054300D141E18C
:101F9000002C00D1ADE1200000F0F0FE01000200B5
:101FA0000B391D2310005B1A3100350008388440BE
:101FB000D94085400C439E48831A009300239946DC
:101FC0009B4686E70500254300D01CE108220093CC
:101FD0000223002491469B467BE75246324300D1C0
:101FE0000AE1002E00D176E1300000F0C7FE0200C9
:101FF0000B3A1D2301009B1A52460839DA408E40E5
:10200000164352468A40009B8949181A03008C46A1
:102010006344002000937AE700240025814AA5E765
:102020002F0C2D042D0C2B00110C1204120C5343F9
:102030009846130028007B4399464843484483460A
:1020400040460B00000C824658467B4350440293A6
:10205000814506D99A4680235B029946CA44534675
:102060000293030C9B4643461B0400041B0C98463A
:10207000030043440493330C99462B003604360C7A
:102080007343984633007B439A464B465D435F4318
:1020900043465544180C4019824503D980235B02FE
:1020A0009A465744050CEB19059343461D042D0C25
:1020B00000044019250C2404240C270057436A43CC
:1020C00090462A003B0C9A464A436143414451449E
:1020D0008344884503D980235B02984642443F04E9
:1020E0000B0C3F0C0904C919270098464B4677434F
:1020F0005C436E435D433B0C9946A4194C444244F7
:102100000395A64204D980235B0298464544039573
:10211000029B3F045B441E00834280412304984697
:10212000059B3F0C4744984676188E4289414744A8
:1021300040423D18A846934649428A46C3449F42BE
:10214000BF4180458041039BDA4498465346404254
:102150007F420743240C934592418A4589413F19A8
:10216000DC0D049B75021D43681E85415346524297
:1021700049420A43BF184744F60D7F0235435A02CD
:102180003C431543FB0100D4C1E001216A080D4026
:102190001543E2071543640826496144002956DDCA
:1021A0006B0709D00F222A40042A05D02A1DAA4213
:1021B000AD416D4264191500E30104D580211E4A2A
:1021C000C900144061441D4A914200DD24E76207C2
:1021D000ED08640249051543240B4A0DC6E6019734
:1021E000B8E6104A0320944663444A46009303230A
:1021F0001A43914652468AE64946012319438946C5
:102200000026012083E60C2200930323050091465B
:102210009B465EE604239946002300930133002485
:102220009B4656E6FF07000001FCFFFFC087051034
:102230000DFCFFFFFF030000FFFFFFFEFE07000095
:10224000002380240025444A019324038EE60120C4
:10225000401A382800DD86E61F285BDD1F22230098
:102260005242511ACB401900202803D03B4A624405
:10227000944025436A1E95412A000A4307210D0018
:102280000024154011425BD00F2100241140042985
:1022900053D0111D914292415242A4180A002302C8
:1022A0004BD501220024002560E680231B031C423D
:1022B00009D01E4207D133431C0343461500240BAB
:1022C000254A019352E68022120314432403224A32
:1022D000240B01974AE600F051FD03001A00153265
:1022E00020301C2A00DC84E65646083B00229E4033
:1022F00089E600F043FD01000200153120321C295F
:1023000000DC4EE6340008380025844053E6009B8C
:102310009C4641E71249220061442E008D408A40CC
:10232000C640691E8D4132432A43C4405307B6D08C
:102330000F2111400429ACD1B1E765076402240BD9
:10234000D2081543002211E680221203144324030D
:10235000014A240B0AE6C046FF0700003E040000C5
:102360001E040000F8B557464E464546DE460400BA
:10237000E0B51F0010000B03620F4E00CD0F5B0A8B
:1023800039031343490AE200440F2143C24C9146EA
:102390009246C0007A008046760D520DFF0FA24291
:1023A00000D1B4E001246740BB46BD4200D188E0C3
:1023B000B41AA446002C00DCB2E0002A00D1C5E02B
:1023C000B54A964200D18BE2802212041143624644
:1023D000382A00DDA1E11F2A00DD16E220270C00CB
:1023E000BF1ABC400200A0466446B840E2404446E2
:1023F00014430200501E82416046C14022435B1AD2
:1024000049468C1AA145924152429B1A984643462E
:102410001B0200D417E143465B025B0A9846434621
:10242000002B00D16CE1404600F0A8FC0200083A05
:10243000202120004346891A9340C840944003431A
:10244000964200DD57E1961B711C1F2900DDCBE190
:10245000202218002600521A94409040CE40CB40D3
:10246000621E94413043984600260443630709D016
:102470000F232340042B05D0231DA342A441644213
:10248000A0441C0043461B0200D4DFE0824B01360F
:102490009E4200D1FBE04246804BE4081A40130004
:1024A000710552075B0222431B0B490D0905ED071D
:1024B0001943294310003CBC90469946A246AB46BE
:1024C000F8BDB41AA446002C58DD002A00D19EE0C5
:1024D000714A964200D13BE18022120411436246C8
:1024E000382A00DDC1E01F2A00DCBBE10C00203AE5
:1024F000D44022006446202C04D040273F1BB94022
:10250000084380464446611E8C411443B1E00C00F0
:1025100004432AD0BB46BD422DD0614CA446B444EE
:102520006446002C5CD0941BA446002E00D015E11C
:102530004D461D4300D1C3E1651E012C00D10CE2C4
:10254000554EB44200D1F8E1AC460EE10A00024318
:1025500000D136E12200013A012C00D1C6E14E4CF7
:10256000A44500D1F4E0944631E701246740BB461E
:10257000BD4200D01CE74A4CA446B4446446002C3B
:1025800000D1CFE0941BA446002E00D15CE1424E66
:10259000B24200D1ECE18026360433436446382C45
:1025A00000DDB3E11F2C00DD38E22026361B1C00C5
:1025B000B4404F46A0466446E74044463C434F463D
:1025C000B7403E00771EBE4134436646F340C9180B
:1025D000241884429B415B429846160088444EE092
:1025E000304A741C144200D0D6E04A461A43002EEA
:1025F00000D05BE1002A00D1A5E10A00024300D02F
:10260000BBE14A465907D2080A43DB0827E00A0023
:10261000024300D174E12200013A012C05D01E4C86
:10262000A44500D194E0944659E748444845924176
:102630005B189846040052429044434602261B020F
:1026400000D5C4E0013E630700D011E74346B4461D
:102650005907E2080A43DB080F498C4540D0614620
:102660001B0349051B0B490D20E701430C00611EAC
:102670008C414C444C4592415242904698444346CA
:102680001B02E0D5044B01369E4200D09FE0310092
:10269000002300220AE7C046FF070000FFFF7FFF7C
:1026A00001F8FFFFFE070000002A00D160E10A00E8
:1026B00002434DD04A465C07D20822438024DB08FF
:1026C0002403234207D0CE08264204D15D463300BE
:1026D000C20849070A43510FD200D20849070A43EA
:1026E0001100194300D1C8E1802109030B431B03EA
:1026F000D5491B0BDAE6D549B61A0B409846B5E624
:10270000200000F03BFB020018321F2A00DC8FE69D
:10271000230008388340002492E608430200501E3C
:1027200082416DE6CA4C721C224200D0ADE04A469E
:102730001A43002EB8D1002A00D158E10A00024302
:1027400000D059E14A465907D2080A43DB0886E718
:102750004A465907D2080A43DB08C1E7BA4DAA42E4
:1027600000D11EE180252D042B436446382C5DDC0E
:102770001F2C00DDD0E0202567462D1B4E461C0097
:10278000FE40AC4034434E46AE403500FB406E1E2A
:10279000B541C91A2C434EE04A46141AA14592414C
:1027A000524290465F1A3A004746D21B90461202A8
:1027B00000D58BE04246224300D030E600230025BE
:1027C0004DE74A465907D2080A43DB0844E7424628
:1027D0009E4B61081A401300012214400C43DA0793
:1027E0005B089846144341E61A001F3EF24016006B
:1027F000202903D04022511A8B401C43621E944171
:1028000000233443984600261DE70C00203AD440AC
:1028100022006446202C04D040273F1BB9400843C7
:1028200080464446611E8C412243E9E54C462343E1
:102830001C00631E9C41041BA0429B415B42CB1ABF
:1028400098465D461600E2E54E461E4300D1AEE0D6
:10285000661E012C00D1FDE07B4FBC4200D107E198
:10286000B4469BE664462022121B0C0094400700ED
:102870009040A0466446421E90416246E74044466E
:10288000D1403C4304435B18F3E66F4CA24200D1B5
:10289000D5E048445B184845894149425B18DC074C
:1028A00040085B08984616000443CCE6002A00D096
:1028B00082E00A00024340D1802300251B0313E776
:1028C0004B07C2081A435D46CB08C5E64A46841A40
:1028D000A0429241CB1A52429B1A98465D469EE511
:1028E0004A465907D2080A43DB08F9E64A46141A51
:1028F000A14592415B1A52429B1A9846012686E5F1
:102900004A465907D2080A43DB08A5E64C4623434A
:102910001C00631E9C415BE665461E00203DEE40A8
:10292000202C05D040252D1BAB404C461C43A24615
:102930005446631E9C4134437DE74B07C2081A434B
:102940005D46CB08CCE60A00024300D136E74B07D0
:10295000C2081A435D46CB0881E64A46841AA04263
:102960009241CB1A52429B1A98465D4601264EE58B
:102970004B07C2081A43CB08B2E64A46141AA145CF
:1029800092415F1A5242BA1A904612026BD54A46D9
:10299000841AA0429241CB1A52429B1A98465D4635
:1029A00064E54B07C2081A435D46CB0898E64B071F
:1029B000C2081A43CB084FE60A00024390D04A46A9
:1029C0005C07D20814438022DB081203134208D0AC
:1029D000CE08164205D1C0084907084304005D46E9
:1029E0003300610FE2004907D2080A4378E64B073B
:1029F000C2081A43CB0832E648445B184845924166
:102A0000984652429044434604001B0200D41AE602
:102A100042460E4B01261A40904614E666461F00B9
:102A2000203EF740202C05D04026361BB3404C46B4
:102A30001C43A2465446631E9C413C43C8E511001A
:102A40000023002232E5C046FF070000FFFF7FFFA2
:102A5000FE0700004A461418844292415B189846CB
:102A600052429044E9E54246224300D1A6E6EAE517
:102A70004B07C2081A43CB0832E600220149130073
:102A800014E5C046FF07000070B505000C480C03B4
:102A9000160049001A035B00240B490D120B5B0D55
:102AA000814208D0064900208B4203D132431000F6
:102AB000421E904170BD01202C43FBD1F2E7C0467D
:102AC000FF0700000A0030B5134C5300090305004E
:102AD000090B00205B0DD20FA34204DD0F48834297
:102AE00002DD0F4BD01830BD8020400301430D485C
:102AF000C01A1F2808DD0C48C31AD9400B005842E1
:102B0000002AF0D11800EEE7084CC540A446634403
:102B100099400B002B43F2E7FE0300001D04000068
:102B2000FFFFFF7F3304000013040000EDFBFFFFF5
:102B300070B5002816D0C317C5185D40C40F280013
:102B400000F01CF9114A121A0A2816DC03002E00A4
:102B500015339E400B23181AC54053052D032D0B2A
:102B60005B0D03E000240023002500261B052B43FA
:102B7000E40723433000190070BD0B38854053052E
:102B80002D0300262D0B5B0DF0E7C0461E04000050
:102B900010B5041E10D000F0F1F80F4B1B1A0A28D4
:102BA00011DC0B222100121AD14015300A035B05FB
:102BB0008440120B5B0D01E0002300221B05134330
:102BC0002000190010BD22000B3882405B05120363
:102BD0000024120B5B0DF1E71E04000070B54300EA
:102BE0004602C40FFE201B0E591C750A08420CD069
:102BF000E022920094466D07360B63441B05334375
:102C0000E40723432800190070BD002B14D1002DC8
:102C10001BD0280000F0B2F80A281CDC0B232A0085
:102C20001B1ADA40030015339D400E4B12031B1A8A
:102C30005B05160B5B0DE1E7002D09D0320B8026FA
:102C40003603094B6D071643D8E700230026D5E766
:102C50000026054BD2E703002A000B3B9A400025D3
:102C6000E3E7C04689030000FF07000002004B00B5
:102C7000F0B508035B0D3D4ECC0F400A510F5F1CB1
:102C80000843D50037420AD039495E18FE2E16DDBA
:102C9000FF230021DB050B43E0071843F0BD002BA9
:102CA00006D1284327D005218901490ADBB2F1E783
:102CB0000543EDD08021C903FF230143EAE7002E3D
:102CC0001CDD920111004A1E9141C0006D0F0143AD
:102CD00029434B0748D00F230B40042B00D004316D
:102CE0008023DB040B403FD0721CFE2ED0D0890124
:102CF000490AD3B2CEE700230021CBE732001732D6
:102D000022DB80211E2209040843921B1F2A1DDD9D
:102D1000022149428E1B0100F1400E00202A04D0FE
:102D2000144A944663449840054329004D1EA94126
:102D3000314300264B07CED180200B00C004012276
:102D400003400142D3D1AFE70023ACE70A498C46E8
:102D500029006344D1409D400A00290098404D1E3F
:102D6000A94101431143E4E733009DE7FE0700005A
:102D700080FCFFFFA2FCFFFF82FCFFFF1C21012360
:102D80001B04984201D3000C10391B0A984201D34E
:102D9000000A08391B09984201D30009043902A22C
:102DA000105C40187047C046040302020101010193
:102DB000000000000000000010B5002903D1FFF75B
:102DC000DDFF203002E0081CFFF7D8FF10BDC04631
:102DD0007047704710B501F07BF901F0BEFB024A65
:102DE00013680133136010BD5C03002010B5024866
:102DF00002F0B8FA10BDC046F021002010B5054C15
:102E0000200001F03EFC002802D0200001F029FC47
:102E100010BDC046C421002010B50FF0EFFE10BD5C
:102E2000054B82B01A6D02431A651B6D1840019064
:102E3000019B02B07047C0460000404810B50F200B
:102E400001F052FB10BD0000F0B587B01422002144
:102E500001A810F0BDFA0420FFF7E2FF9027082038
:102E6000FFF7DEFF802480211C4DFF053800640041
:102E70000122090101F004FD01222100280001F0D6
:102E8000FFFC0126032301940024280001A90493D8
:102E90000296039401F004FC8022032312013800FF
:102EA00001A9019204930296039401F0F9FB802397
:102EB00001A91B02280001930294039401F0F0FB86
:102EC000102001F005FB0323280001A901960296BA
:102ED0000394049301F0E4FB07B0F0BD0000104838
:102EE000F0B50024102589B00820FFF799FF0420D1
:102EF000FFF796FF03A9254803950494059401F074
:102F0000CFFB80230126224F5B03694638000093E4
:102F10000296019401F04AFB1E4A2100380001F09C
:102F200087FB3100380001F08AFB380001F0B2FB6A
:102F30000221280001F0A2FA280001F0C9FA90202D
:102F400003A9C00503950494059601F0A9FB02238B
:102F50000095114D694628000293019401F026FB6B
:102F60000E4A2100280001F063FB3100280001F027
:102F700066FB280001F08EFB03210F2001F07EFA92
:102F80000F2001F0A5FA09B0F0BDC04600001048BE
:102F9000C421002051180510CC2100203D2E041022
:102FA00007B501200021404201F068FA8020054A5F
:102FB0004000516D01435165536D03400193019BE6
:102FC00007BDC046000040480122014B1A707047FF
:102FD000A0030020802310B503489B0000218380BC
:102FE00003F0E4F810BDC046C8240020064B10B51D
:102FF000195C064810F040FA802305489B00002128
:10300000838003F0D3F810BD1A88051000880510DE
:10301000C824002010B5002003F000F910BD10B541
:103020004379032B0CD10379012B09D1036818785C
:10303000012803D0022801D0002801D103F0EEF8C6
:1030400010BD000010B5044B1A78012A03D10022EC
:103050001A7005F0A1F810BDA003002070B504009F
:10306000084D092808D80623434307490748C918CB
:1030700010F002FA2C7070BD2978054810F0FCF9A8
:10308000F9E7C046BD030020F72400201E88051084
:103090003288051010B50400102001F025FA0EF05A
:1030A0009BFF20000A4CFFF7D9FF20000FF07EFCA9
:1030B0000849094802F064FF03F04CF820000FF0C3
:1030C00075FC102001F03AFA102001F001FA10BD51
:1030D000FFFF0000F4240020D0240020014B1878CA
:1030E0007047C046BD03002010B50400074810F02B
:1030F0002FFA03F04BF8012802D003F02BF810BD93
:103100000021200003F052F8F9E7C0466588051059
:1031100007B506480FF038FD6A46054B6846009330
:10312000044B9380FFF7E0FF07BDC046A4030020D7
:10313000738805101902000070B5124E0400337830
:10314000002815D1002B11D0642000F0D3FF0E48C9
:1031500010F0FEF90D4D0E4928000FF00DFD28006E
:103160000C490FF0B7FD28000FF00EFD347070BD54
:10317000002BFBD1084810F0EBF904480FF07EFD5E
:10318000F4E7C046BC0300208D880510A40300208E
:1031900011310410983A0000C588051010B5FF21C0
:1031A000012000F053FE002800D0FEE700F084FF6D
:1031B000FFF796FEFFF748FE00F0A0FA00F00EFAC7
:1031C00000F0BAF8064810F0C3F90FF0D1FE08205D
:1031D000FFF760FF0FF0B8FEFFF734FFFCE7C046D3
:1031E000FD88051010B5024810F0B2F9FEE7C046A0
:1031F00018890510F8B50C000500214E002230009A
:1032000001F09AFD21000022300001F095FD290017
:103210000022300001F0BAFD0321EA7819486E78E7
:1032200050430A4053425341174A5B421340174AE6
:10323000013E9B183D2272437600F340AD78013287
:10324000D70F0330BA18013D800852102818101803
:103250000B40C31A0E4822785843E1231B01534305
:103260003C226178FF254A439B18A27864689B182A
:103270001B18190E180200232A1B80185941F8BD8B
:10328000D4210020B5050000B0AAAAFFA0AA990089
:1032900080510100084B026882B09A4209D1802017
:1032A000064A4001516D01435165536D034001933E
:1032B000019B02B07047C0460040004000004048FB
:1032C000FA2203009200C0B250431B0A5343000A83
:1032D000C018704770B586B0060001A96846FFF7B0
:1032E00089FF0400C0B20D00FFF7EAFF2D06308011
:1032F000200A284306B070BD7FB5684601A9FFF7D4
:1033000079FF07B000BD000010B5044C2000211D5E
:103310001830FFF76FFF206010BDC046E8030020A3
:10332000802110B54900034801F0B6FAFFF7ECFF21
:1033300010BDC046D421002030B5002591B0142224
:10334000002101A810F044F82822290006A80095C1
:1033500010F03EF82E4C2F4B200023607F23A360FB
:1033600080336560E3602561656101F00BFBA84275
:1033700004D0294810F0ECF8FFF734FF00236A4628
:1033800020009380937101A9012202930493059375
:1033900001F052FB002804D0204810F0D9F8FFF7C4
:1033A00021FF1F4B012269462000009301F0BEFB64
:1033B000002804D01B4810F0CBF8FFF713FF0023C0
:1033C0006A4613839376F02212050C92012207932A
:1033D00009930A930B930D9319336B44DA77802387
:1033E00020005B0006A90F9301F002FC002804D026
:1033F0000D4810F0ADF8FFF7F5FE00210B2001F0AD
:103400003DF80B2001F064F8FFF78AFF11B030BDE2
:10341000D421002000400040278905103A8905107A
:103420000101010050890510668905107FB56846C5
:1034300001A9FFF7DFFE024B1B68C01A07B000BDF1
:10344000E8030020014B18687047C046E8030020DD
:10345000802110B5054C4900200001F01DFA2168BB
:10346000034BCA68D2B21343CB6010BDD4210020F5
:103470007FFEFFFFF0B53B4B87B05A799F68019202
:103480009A799C7E0292DA791D7903925A7EDB7ECC
:10349000060004920593FFF7DBFFFF23DF1B334099
:1034A000FB18314A9BB2360AA0B296423BD8E122C1
:1034B000ADB2120196423BD26A4697883B2E3CD869
:1034C0001A0ADCB2029BD2189619B6B23B2E38D833
:1034D0003B2F3BD8172D3ED8049B059A013B920702
:1034E0003ED1224AD15C884202D9FCF7B5FF88B2AE
:1034F000FF231C1BF0231E491B058B614B1CD87737
:10350000039B0022CB7080231A485B004C608E70B6
:103510004F700D70CA614A614B62CA600A6101F066
:1035200067FB07B0F0BD14490130761880B2BCE7E4
:10353000124901357618ADB2BCE701373C3EBFB247
:10354000BCE73C3E0137B6B2BFB2BFE73C3F0135F6
:10355000BFB2ADB2BCE7183D0130ADB280B2B9E741
:10356000074ABFE7E80300207F5101008C8905105E
:10357000C0030020D421002080AEFEFFF0F1FFFF49
:103580008089051010B5C10E7D2200234001FCF793
:10359000E1FF10BD0320704770B50C00054D02001F
:1035A0000021280001F014FC28002200012101F074
:1035B0000FFC70BDD421002070B5074E05000C0033
:1035C0003000002101F00AFC01212860300001F0E8
:1035D00005FC206070BDC046D4210020E0221248C6
:1035E000124B10B503608223D200C26080225B00C0
:1035F0004360002392008261C93AFF3AC261313AC6
:10360000836003614361036243628362C262036356
:10361000436301F079FC002804D005480FF098FFBF
:10362000FFF7E0FD10BDC046F02100200020004162
:103630009889051070B5194B026886B09A422BD153
:103640000120174A8026916D022401439165936DF4
:103650000025034090200093F60101A9C005009BBE
:103660000196029403950495059401F019F88023BE
:1036700090209B0101A9C005019302940394049535
:10368000059401F00DF8074801A9019602940394EE
:103690000495059501F004F806B070BD00200041C6
:1036A000000040480000104801204042704780233D
:1036B0009B0100204B60704701207047002070473D
:1036C00070B50E0014000025A54201DB200070BD7E
:1036D000705D00F005F80135F6E710007047000056
:1036E00007B5044B01900122034801A902F0AEF88E
:1036F00001980EBDFFFF00005422002010B51E4BA4
:103700001E4C0C222360E1235B0263600023200037
:10371000A360E36023616261A361E361236263628A
:10372000A36202F035F9002804D015480FF010FF0D
:10373000FFF758FD0021200002F0AEF9002804D068
:1037400010480FF005FFFFF74DFD0021200002F0AB
:10375000C5F9002804D00C480FF0FAFEFFF742FD2F
:10376000200002F07DF9002804D008480FF0F0FE98
:10377000FFF738FD10BDC046004000415422002034
:10378000AB890510BF890510E3890510078A05106C
:103790007FB50F4B02689A4218D180200D4AC000B5
:1037A000916D01439165936D01A903400093009BC6
:1037B000C0239B000193022390200293013B0393BB
:1037C0000023C0050493059300F06AFF07B000BD15
:1037D0000040004100004048E021034A93688B43C9
:1037E000034393607047C0460000404870477047ED
:1037F0007047704770477047704770477047704711
:103800007047704770477047704770477047704700
:1038100070477047704770477047704770470000A7
:103820000D4B10B51B68002B14D10C4B1A69002AE4
:1038300002D19B6B002B0DD00122094B9A60FCF743
:1038400059FCBFF34F8F074B074ADA60BFF34F8F26
:10385000C046FDE7012010BD9400404800005048DC
:103860000400002000ED00E00400FA0510B5FFF7A9
:10387000D7FF01280ED10E4A0E4B0F498B420FD3B2
:1038800000210E4B0E4A93420DD300210D4B0E4AE0
:1038900093420AD30D4B83F30888FFF77FFC10BDDA
:1038A00001CA01C3EAE702C3EDE702C3F0E7C0467D
:1038B000C09E0510C8240020342F0020C000002026
:1038C0005C0300205C030020C824002000000120CD
:1038D0000A4A0300116810B5002901D10849116096
:1038E00010680849C3188B4206D90FF019FD0C2344
:1038F00003600120404210BD1360FCE70404002077
:10390000342F002034310020F7B5C020FF25C02619
:103910004B4B80001A584B4CAA4332431A50C022DA
:103920001E581202264016431E501E584649C027F4
:103930000E40C02109040E431E501E583F06360299
:10394000360A31003943195004301E583100C02660
:10395000A943314319501E583100214011431950D9
:103960001E583100384E31400E00C02109040E436C
:103970001E501E583602360A3E43C0271E500430E1
:103980001E58AE433E431E501E582F4F264016432E
:103990001E501E5801913E40C0270E431E501E5817
:1039A0003F063602360A3E43C0271E5004301E58DA
:1039B0002549AE433E431E501E58264016431E5016
:1039C0001E580E4001990E43C0211E501E58090674
:1039D0003602360A0E431E5004301E58AE433E4394
:1039E0001E501E58184F264016431E501E583E406B
:1039F0001E501E583602360A0E43C0211E50043097
:103A00001E58AE43314319501958802621401143A6
:103A100019501958F6050F40C02109040F431F50D3
:103A200019580902090A31431950C621890058580A
:103A3000A84358505858044022435A50F7BDC04636
:103A400000E100E0FF00FFFFFFFF00FF024B1868EE
:103A5000C003C00F7047C04610E000E0F0B585B06D
:103A6000002818D02020FFF7B7FE06216E4B1A6EF3
:103A70008A43110002220A431A660122196C11437B
:103A80001964196C91431964196E114319661B6E00
:103A90001A400392039B654B1A68654B9A4200D00B
:103AA000BCE00F2407250126624B18681A681968C4
:103AB000000A120B090C2040224021401C681B68A0
:103AC000240D1B0E2C402B40009401939E250F27A4
:103AD000AD00AC46584B12015D59BD4329436546C4
:103AE0005951043D59590C00F0218C4321001143D8
:103AF00059515A59BA4310435851002E0ED09221B1
:103B0000072089005A58009C824314435C505A583D
:103B1000313082430198C00002435A50B0213F2205
:103B20000A2089005C589443204340245850585838
:103B300020435850042004315D5895432843585081
:103B400080205D58284358505858A0435850BA20F8
:103B5000BB2480001958A400914319501021185912
:103B600090430143195120210434185990430143D3
:103B70001951302104341859904301431951382107
:103B80000434185990430143195139210434185908
:103B90009043014319513A21043418599043014389
:103BA00019513B21043418599043014319513C21C8
:103BB0000434185990430143C32019518000195807
:103BC00055249143023A0A43FF211A501B4AD06CF4
:103BD00088432043D0646620956D8D4328439065CB
:103BE000C425D06E6D00884304431D20D4665C5903
:103BF0008C43204358515920043D5C598C43204349
:103C0000C6245851640018598843CD3901431951CD
:103C10000123116F0B43136705B0F0BD0821002687
:103C20000722080052E7C04600004048F81E001076
:103C3000CCECBCFCE81E001000140060FC1400601A
:103C4000F7B5534B534D80276B600023AB600533B2
:103C50002B6080230600504C5B022268BF02134396
:103C6000236023683B421CD1FFF7F0FE0028F8D008
:103C7000042701222B6893432B60002F0FD1002EC5
:103C800000D074E08022F021D205136812680B4046
:103C9000E1390A4013430637102B00D071E0380099
:103CA000FEBD0027E5E70020FFF796FD3B4BFA211C
:103CB000336030688900FCF75FFA431EFA20800009
:103CC000584300236860AB6005332B608023226873
:103CD0009B011343236080222368D201134204D145
:103CE000FFF7B4FE0028F6D0052701222B68934386
:103CF0002B60002FD3D1294A30683021284B9042C5
:103D000025D15A688A43110010220A435A60C6E737
:103D10002020FFF761FD234BC9E74020FFF75CFD42
:103D2000214BC4E76020FFF757FD204BBFE7802001
:103D3000FFF752FD1E4BBAE7A020FFF74DFD1D4BCC
:103D4000B5E7C020FFF748FD1B4BB0E7FEE75A6818
:103D50008A43DBE7C046019B01330193019B052B9E
:103D6000F8DD0423A26800271343A36097E7701EC1
:103D70000628EBD8114EFCF7D7F996CBD0D5DADF71
:103D8000E4000223A2681343A3600196E6E7C0465D
:103D90001844E80110E000E0000040480090D00323
:103DA000001000400048E8010024F40000127A00EE
:103DB00000093D0080841E0040420F003425002091
:103DC000030010B5FF2826D00A1F0120032A23D99B
:103DD00003292CD1002B1FD006221A48036E9343CF
:103DE0001A0004231343036601238020F024C00536
:103DF000026800682240E13C20400243102A0AD1B8
:103E0000114A01290DD1012B07D129331360082351
:103E100051681942FCD1002010BD002B05D0282389
:103E2000F4E70229FBD1012BF9D12923EEE7012B7D
:103E3000D2D00620034C226E82431000022202439D
:103E40002266D2E70000404800500040F0B5744BB5
:103E5000744A87B0039004919360734A734E136160
:103E600020237268724F13437360402372680424E6
:103E70001343736080237268134373606D4B7B60E0
:103E80000023BB6005333B607369234200D0BBE075
:103E9000FFF7DCFD0028F7D0012501213B688B43AB
:103EA0003B60002D00D0ACE03022F369624C9343BC
:103EB0001A00202313438022F361A36852011343A5
:103EC000A3605E4B1A685E4B9A4200D09EE00F20C2
:103ED0005C4A13680340019313685B065B0F02930F
:103EE00013681B0A03400093136812681B0B0340FE
:103EF00092020593920EE36853481206184010434D
:103F00008022E060E06812040243E26000290AD0E7
:103F10001E21E268059B8A4359000A43E2600122A0
:103F2000E1680A43E2601E20484A009B11685B007A
:103F3000814319430123116011680B431360136817
:103F400043490B40019989010B43136020231168F9
:103F50000B43136013683F490B400299C9020B439E
:103F6000136080231168DB000B4313608022F36928
:103F700052001343F361384B384A7B600023BB6027
:103F800005333B60A36808261A4080235B02134375
:103F9000A36004232268134323602368334204D1BF
:103FA000FFF754FD0028F8D0032501203B68834328
:103FB0003B60002D25D1049BFF2B01D0FFF74EFD68
:103FC000274B28491A6803981140802292010A431E
:103FD0001A60802219680A4370211A601A688A439D
:103FE000110030220A431A60FFF72AFE051E08D18D
:103FF00003990498FFF7E4FE051E02D1FFF784FC45
:1040000062B6280007B0F0BD002546E708230093FC
:10401000053B0293053329001E2201936BE7C0463E
:104020000000041000ED00E00400002000005048F3
:1040300010E000E038D3300000004048F81E0010C7
:10404000CCECBCFCE41E0010FFFFFFC09400504805
:104050003FFCFFFFFFC7FFFFD43C4900FF7FFEFF8F
:1040600098004048FFC0FFFF70B5114E050033684F
:10407000002B01D1012070BD00F008FC0400FA20E3
:1040800031688000FCF778F801002000FCF774F834
:1040900000F03AFA041EEDD1032DEBD801202900DF
:1040A000404200F0EBF9034B20001D60E3E7C046FF
:1040B000382500203C25002010B50320FFF7D4FF51
:1040C000041E03D1FEF76CFF200010BD0124FBE7A6
:1040D000034A0449136809685B1813607047C046B7
:1040E000E022002038250020014B18687047C046A8
:1040F000E022002070B50400FFF7F6FF0500631C06
:1041000002D0044B1B68E418FFF7EEFF401BA042EF
:10411000FAD370BD3825002080688007C00F704733
:104120007047000070B504000120002C5AD0A56A29
:10413000002D05D12000FFF7F3FF631DE562DD7759
:104140002023206882681A4202D182681343836068
:10415000A36ADB065ED4FFF7DFFF00285AD1A36A0B
:104160002F4A30491A4002231343A36223685A6836
:104170000A4061690A435A605A682B490A40A1699A
:104180000A435A605A6829490A4021690A43E1688A
:104190005A60002927D15A6825490A405A605A684E
:1041A00024490A405A60A2686068D20002433F2056
:1041B000D96981430A433C21DA615A6800208A4365
:1041C000E1690A431C495A604B681C4A1A40802323
:1041D0005B00134303224B60A36A93431A0001233D
:1041E0001343A36270BD012904D180225968D20211
:1041F0000A43D3E780229202022906D159680C486B
:104200000140596059680A43CCE780215868C902C7
:104210000143F6E71023A26A01201343A362E1E7FA
:10422000FDFEFFFFFFE7FFFFFFFFF7FFFF7FFFFF41
:10423000FFFFFBFFFFFFFDFF006000417FFEFFFF70
:104240000368586C80B270470023F7B5441D019392
:10425000E37F05000E000227012B00D191E0013F12
:10426000E7770068FFF758FF002800D0B8E07078C3
:1042700037780138152812D8FBF760FF0B1F262C62
:1042800032383E444A11111111111151585E646ABD
:1042900070760F2029680B6A83433B430B620B2F18
:1042A00000D994E038002D68B378FBF747FF6384AA
:1042B000888C6C74787C8084888CF02029680B6AE8
:1042C000834338010343E9E7296848480B6A034000
:1042D0003802F7E7296846480B6A03403803F1E7DC
:1042E000296844480B6A03403804EBE729684248D0
:1042F0000B6A03403805E5E7296840480B6A03402C
:104300003806DFE7296838070B6A1B011B09D9E764
:104310000F2029684B6A83433B434B62BFE7F02081
:1043200029684B6A834338010343F6E729682F481D
:104330004B6A03403802F7E729682D484B6A03406F
:104340003803F1E729682B484B6A03403804EBE750
:10435000296829484B6A03403805E5E7296827485A
:104360004B6A03403806DFE7296838074B6A1B01B0
:104370001B09D9E70320696981430B436B61002363
:10438000E3773800FEBD6A691D491B020A401343EA
:104390006B610027F3E76A691A499B02F6E76A69CD
:1043A00019491B03F2E76A6918499B03EEE70321E9
:1043B0006A698A43EBE70C216A699B00F9E73021BF
:1043C0006A691B01F5E7C0216A699B01F1E70D2FBE
:1043D000DFD180230E4A9B0051680B435360D8E71E
:1043E0002023AA6A1343AB62C9E7C046FFF0FFFF70
:1043F000FF0FFFFFFFFFF0FFFFFF0FFFFFFFFFF0CB
:10440000FFFCFFFFFFF3FFFFFFCFFFFFFF3FFFFFBB
:1044100000005048012302689168194202D1916856
:104420000B4393600020704770B504000068FFF7ED
:1044300073FE03000220002B1DD1651DEB7F012BB5
:1044400019D001232000EB77FFF7E4FF002807D104
:10445000A36A094A1A4080235B001343A362E06207
:104460002A222368D96C0A43DA640022EA77996821
:1044700002320A439A6070BDFEF8FFFF30B5FF2597
:1044800003242A000440E400A24089012940D243C9
:10449000A140C3B200280ADBC0240B4B8008800077
:1044A000C018A40003591A401143015130BD0F2018
:1044B0000340083B05489B089B001B18D869024035
:1044C0001143D961F2E7C04600E100E000ED00E0F1
:1044D000002805DB1F2318401E3B8340014A136060
:1044E0007047C04600E100E0002809DB1F231840A8
:1044F0001E3B8340034AD367BFF34F8FBFF36F8FD9
:104500007047C04604E100E08022431E52040120AF
:1045100093420DD2C021074A07485360036A090637
:104520001B021B0A0B4303620020072390601360E9
:104530007047C04610E000E000ED00E0002807DB17
:104540001F23C02218401E3B8340024952008B505B
:104550007047C04600E100E0704710B5FFF7FCFF70
:1045600010BD70B5841DE37F022B04D00423C36308
:10457000033B180070BD0E210368456C1A688A431E
:104580001A6001221968914319603C232B401500E1
:104590009D40016C431D4D60E2770024DC77826B07
:1045A0001300A242E5D090472300E2E70200012079
:1045B000002A27D0002925D00B6813604A68D0B2A2
:1045C0008022D20500280FD1D0689843D0608A6835
:1045D000D2B2032A0BD18022D2051169194311618D
:1045E0005169994351610CE0D0681843EEE7012A04
:1045F00009D18022D20511699943116151690B4398
:10460000536100207047022A04D18022D20511692B
:104610009943E4E7042AF8D00020052AF2D1802249
:10462000D20511699943116151690B435361E9E75F
:104630000300081E01D15A6070470120FCE7030007
:104640000120002B08D01A688023DB05814204D1A9
:1046500099690A439A610020704799699143996169
:10466000F9E770B58025ED050400EB6900680340AB
:10467000984205D16368002B00D098472368EB610E
:1046800070BD8022D2050368D0691840C01A434229
:104690005841704780230268DB05DA6170470000EB
:1046A0000022F0B585B00B681C00D44001D105B0E4
:1046B000F0BD012494400294234200D1C6E04C682E
:1046C000260001941024A6430396022E0DD107253F
:1046D0000F261540AD00AE40D408A4000419276A87
:1046E000B7430E69AE403743276203245500AC4000
:1046F000E643B44603260768A743019C3440AC4018
:10470000039E3C43013E0460012E10D86646846837
:104710003440CE68AE403443012684604568029C34
:10472000A543019C2409344094402C4344609025C7
:104730008C68ED05A84243D1012C31D0022C37D032
:10474000002C06D14A4C256A9D432562656A9D432B
:104750006562019BDB0079D58027019C7F01802564
:1047600024093C4001239027ED0593409440EE68D6
:10477000FF05B84242D19E432643019CEE60E4030C
:1047800040D56C699025ED05A84267D19C43019DF9
:10479000ED0252D59025ED05A84262D11C434CE0B4
:1047A000334C656A9D436562256A2B432362D0E7DB
:1047B0002F4C256A9D432562656A2B436362C8E7D7
:1047C000012C0BD0022C11D0002CC2D1284CA56A90
:1047D0009D43A562E56A9D43E562BAE7244CE56A1C
:1047E0009D43E562A56A2B43A362B2E7204CA56A0C
:1047F0009D43A562E56A2B43E362AAE71F04BE431B
:104800002404B9E72C699025ED05A84220D19C43EA
:10481000C027019DBF033D40AC4680260025F6051C
:10482000BC4506D190257461ED05A84213D11C4307
:10483000012534617469002DA4D08023DB055C61FF
:104840009024E405A0420ED19C69DA6101322AE786
:104850001D04AC43DCE71D042C43E9E71D04AC4315
:1048600095E71B049AE79C691404DC61EEE7C046F7
:104870000000504800690840411E8841C0B270479E
:10488000002A01D0816170478162FCE7014B186802
:104890007047C046342500200223F7B5027E04008D
:1048A0001800012A11D0CA220125637623682576D3
:1048B0005A62773A5A62AD32914207D0FF2223689A
:1048C00000205A62012320766376FEBD9A68104963
:1048D000FA270A409A609A680E49BF000A409A6017
:1048E000FFF702FC06002368DB681A002A400192E9
:1048F0002B42E3D1FFF7F8FB801BB842F3D9FF222C
:10490000032023685A62019B60762376DDE7C04668
:10491000FFFEFFFFFFEFFFFFA0210268F8B5D3689D
:1049200004008B43D360FFF7DFFBFA270500202646
:10493000BF002368DB68334201D00020F8BDFFF7D9
:10494000D3FB401BB842F4D90320F7E7F8B5402465
:1049500003680500DA68224201D00020F8BD012278
:104960005242DA60FFF7C0FBFA270600BF002B684F
:10497000DB682342F1D1FFF7B7FB801BB842F6D9C1
:104980000320EBE770B504000125002818D0437E12
:10499000DAB2002B02D10276FEF77CFC0223CA2297
:1049A0006376236820005A62773A5A62FFF7CEFF97
:1049B0002368051E06D0FF225A6204236376012570
:1049C000280070BD9A68154920690A409A6062689B
:1049D00099680243606902430A439A60E2681A6177
:1049E000A268196912040A4380211A61DA688A43AD
:1049F000DA609B689B060BD42000FFF78DFF002830
:104A000006D0FF2223685A62042325766376D6E710
:104A1000FF2223685A6201236376D1E7BFFF8FFF2D
:104A20000023092803D81B011843C0B270470A3875
:104A30000133C0B2F5E700000223F7B50D00017E97
:104A400004001E00012933D0012143760176A978A4
:104A500006686F7828783E330091002A2AD1B26820
:104A6000110019401A4200D1E970FFF7D9FF0190F7
:104A70003800FFF7D5FF07000098FFF7D1FFEB786C
:104A8000019A1B040343100403433F021F43CA233C
:104A90007362773B73622000FFF758FF2368061E9E
:104AA00017D0FF225A62042363760023237601265F
:104AB0003000FEBDB268110019401A4200D1E97001
:104AC00000043F020743009BE8781F4300040743AC
:104AD000DDE71448144907401F609A6828690A40B6
:104AE0009A60EA68996802430A4380219A60DA680A
:104AF0008A43DA609B689B060BD42000FFF70CFF0B
:104B0000002806D0FF2223685A62042326766376A3
:104B1000CDE7FF2223685A620123637600232376C0
:104B2000C6E7C0467F7F7F00FFFFFBFF0223F7B58C
:104B30000D00017E04001E00012931D001214376C1
:104B400001762E78E8786B78AF787603002A47D123
:104B50001032134202D093430A336B70FFF760FFA9
:104B600001906878FFF75CFF05003800FFF758FFF9
:104B7000019B06431F0437432D02CA2223682000ED
:104B80005A62773A5A62FFF7E1FE3D43061E2368F8
:104B900008D0FF225A62042363760023237601267D
:104BA0003000FEBD8021114F3D405D60DA688A43D0
:104BB000DA609B689B060BD42000FFF7ADFE00284F
:104BC00006D0FF2223685A62042326766376E6E73E
:104BD000FF2223685A620123637600232376DFE7EE
:104BE0000004304307431D02C7E7C0463FFFFF00F4
:104BF0000223F0B50C00017E050085B018000129E4
:104C000000D189E001216B76297661782E680091C8
:104C10002078A7783E33002A5CD1B2681100194091
:104C20001A4200D1E170FFF7FBFE01900098FFF7F8
:104C3000F7FE00903800FFF7F3FE0700631CD87FF3
:104C4000FFF7EEFE6269E3691343E278120413434F
:104C50001F43019B1B041F43009B1B021F436368F0
:104C6000626A0093A36900060193CA237362773BCB
:104C70007362AD3307439A4224D1B368274A0124B3
:104C80001340B360F268264BD2B21343F360FFF7D0
:104C90002BFAFA260290B6002B68DA681100214040
:104CA000039122422BD00199009ADF610A435A6492
:104CB0008022996852000A439A60802299685201C2
:104CC0000A439A60FF222B6800205A62012328764B
:104CD0006B7621E0B268110019401A4200D1E170F0
:104CE000E3696269000413431F43009B07431802F2
:104CF0000743E078631C00040743D87FAFE7FFF762
:104D0000F3F9029BC01AB042C6D9FF2203202B68D8
:104D10005A62039B68762B7605B0F0BDFFFEFFFF5D
:104D20007FFEFFFF020903000A2050430F221340B9
:104D3000C018C0B27047000070B50C0001683F2079
:104D40008B6A63600B695B045B0CA3600B680E49A4
:104D50000B40190C1E0ADDB240230840F6B2194080
:104D600020706670A570E170002A0AD1FFF7DAFFA3
:104D700020703000FFF7D6FF60702800FFF7D2FFE9
:104D8000A070002070BDC0467F7F7F0070B50C0012
:104D900003680E495B680B40180CDD04DEB21B048F
:104DA000ED0E5B0FE0706570A6702370002A0AD1CB
:104DB000FFF7B8FFE0702800FFF7B4FF6070300025
:104DC000FFF7B0FFA070002070BDC0463FFFFF009E
:104DD000036889005033C9180A6070470368890066
:104DE0005033C91808687047E021036810B55A6845
:104DF0008A435A6082224168520091420CD180213C
:104E0000826809028A4203D08021C9008A4203D104
:104E100040211A688A431A608021826A89018A4285
:104E200006D11968074C2140196019680A431A60B5
:104E3000030001225D331A7000235C3003700320ED
:104E400010BDC046FFDFFFFFF8B505000C001700DE
:104E50001E002A68936823401B1B59424B41BB42EA
:104E600001D100200AE0731CF4D0FFF73DF9069B46
:104E7000C01AB042EDD32800FFF7B6FFF8BDF8B571
:104E800006000D0014001F00326893682B40A342F7
:104E900001D1002011E0C023DB009D4202D1002C93
:104EA00000D1137B7B1CF0D0FFF71EF9069BC01AC4
:104EB000B842E9D33000FFF797FFF8BD73B50B0098
:104EC0000D00C02100921600490100220400FFF7E6
:104ED000D6FF021E05D02023226E03201343236633
:104EE00010E02B00802120000096FFF7ADFF021E8E
:104EF000F1D1C0212B0020000096C900FFF7BFFFB1
:104F00000028E8D176BD0000F7B504000120002C90
:104F10005FD025005D352B78DAB2002B05D1230058
:104F20005C3320001A70FEF785FB022340212B70B2
:104F30002268E06813688B43E0211360C9000023F6
:104F4000884247D880267601884201D101E01E00C0
:104F5000A362236B002B04D10233884200D80123C3
:104F60002363A36AA76801936368A1693B43276928
:104F70003B4367693B43E7693B43276A3B43019FE8
:104F80003B438027BF000F403B431360236B022B42
:104F900006D113689C46802367461B013B43136080
:104FA000636A090C1843636B184304231940802378
:104FB00001430E43019956609B01994201D1E36A76
:104FC0001361D369064900200B40D3610123206699
:104FD0002B70FEBDF0263601B042B8D11E00B8E7F6
:104FE000FFF7FFFFF0B51F00030087B005925C33A9
:104FF0001A7804000D000226012A00D1C3E0012224
:105000001A70FFF771F8230002905D331A78236855
:1050100061681E68D0B203965E680496012A0CD0BF
:10502000822202265200914200D0A5E0A268002A06
:1050300000D0A1E0042800D09EE00126002D00D180
:105040009AE0059A002A00D196E0002F00D193E063
:1050500022005D321078042801D0052010700598D8
:1050600000222064200008302266C787A01DC78761
:105070008020E2642265A26AA563E787A787800192
:10508000824206D11868B34E304018601868024357
:105090001A60E022E068D200904201D8012F3DD989
:1050A0005A68AD4E32405A6040221E68164202D104
:1050B0001E6832431A60E022D200904200D885E098
:1050C000002901D0012F07D12A880235DA60E38F49
:1050D000A563013B9BB2E387802701250226BF0120
:1050E000E38F002B1FD123000833DB8F002B1AD155
:1050F0008023A26A9B019A4200D0FEE00122029B1B
:105100001100009320000C9BFFF79EFE002800D1A9
:10511000ECE00223226E134323662CE080225E68BB
:1051200052013243BFE723689A68324205D0E28FCA
:10513000002A02D0012D29D0002598680122010003
:10514000114010420ED022000832D08F002809D022
:105150000D00D868236C188002332364D38F013B81
:105160009BB2D387FEF7C0FF029BC01A0C9B9842EC
:10517000B6D30133B4D00326230001225D331A7065
:1051800000235C342370300007B0F0BDA26B11889F
:105190000232D960A263E28F013A92B2E287E28FD3
:1051A000002AC9D1A26ABA42C6D1039A520707D4CB
:1051B000049A120704D58022196892000A431A60E3
:1051C0008022196852010A431A60B5E7002901D00C
:1051D000012F0AD1E28F012A49D92A880235DA60E3
:1051E000E38FA563023B9BB2E3878026012502275C
:1051F000B601E38F002B05D123000833DB8F002B92
:1052000000D175E7226893683B4205D0E38F002BFD
:1052100002D0012D33D000252068012382681100BF
:1052200019401A4219D023000833DA8F002A14D00B
:10523000DD8F226C012D4ED9C568158002322264A3
:10524000DA8F0D00023A92B2DA87DB8F012B04D895
:10525000802342685B0113434360FEF745FF029BD6
:10526000C01A0C9B9842C4D30133C2D083E72A787A
:105270001A73A36B0133A363E38F013BB3E7E18FA1
:10528000A36B01291FD919880233D160A363E38F6F
:10529000023B9BB2E387E38F002BBCD1A36AB342EE
:1052A000B9D1039A2368520707D4049A120704D588
:1052B0008022196892000A431A60802219685201FC
:1052C0000A431A60A7E71B781373A36B0133A36328
:1052D000E38F013BDDE7007B0D001070226C013293
:1052E0002264DA8F013A92B2DA87B6E7F022E168F7
:1052F00023681201914218D1DB6822680026936866
:10530000DB0606D50223216E01360B432366134BC1
:1053100093602000029A0C99FFF7D0FD002800D17D
:105320002AE720230126236626E7256B1B7B022D17
:10533000E3D10122029B1100009320000C9BFFF798
:1053400083FD002803D0236E1D43256613E72368E1
:105350001B7BD2E7FFDFFFFFFFEFFFFFEFFF000048
:10536000704700000368F0B5040058689A6801258A
:1053700091090F0085B02F40294209D12A4207D058
:1053800086092E4204D0E36C2000984705B0F0BD9A
:105390000125960704D5C6092E4201D0236DF3E7F7
:1053A000012556093143120A2A4029401143EDD004
:1053B00041092942EAD0002F0FD021005D31097840
:1053C000032950D00421256E294321660021009134
:1053D000D968009199680091009901210E420BD083
:1053E000256E29432166002140250291996802918A
:1053F0001968A94319600299002A08D00822216E71
:105400000A432266002203929A680392039A226E4C
:10541000002ABBD0E0215A688A435A602200DF3953
:105420005D3211700231084225D05A68A06D8A435E
:105430005A60002809D0124B8363FFF792F80028C6
:1054400003D04023226E13432366606D00289DD055
:105450000B4B8363FFF785F8002897D04023226E1B
:105460001343236692E700220192DA6801929B6857
:105470000193019B8AE72000FFF772FF86E7C04691
:1054800085540410806A0023020010B50832D387C7
:10549000C387FFF765FF10BDF8B504000169836895
:1054A000C2690B43416907680B43406E1343396877
:1054B0000343904801400B433B607B688E490B409F
:1054C000E1680B437B608D4BA1699F4201D0236A49
:1054D0001943BB688A48666A03400B430F21BB60CF
:1054E000FB6A65688B433343FB62844B9F4200D069
:1054F00085E0002E00D180E00D39012E1FD0023151
:10550000022E1CD00231032E19D00231042E16D0E7
:105510000231052E13D00231062E10D00431072E91
:105520000DD01031082E0AD02031092E07D040317D
:105530000A2E04D07F390B2E01D1802149007148F9
:10554000FAF71AFE030003226A4301209A4200D9A7
:10555000CAE02A039A4200D2C6E001220023002EAC
:105560002ED00222002386422AD004220023022EBB
:1055700026D006220023032E22D008220023042E48
:105580001ED00A220023052E1AD00C220023062E3C
:1055900016D010220023072E12D020220023082E1E
:1055A0000ED040220023092E0AD0802200230A2E8A
:1055B00006D0012200230B2E02D1802200235200AC
:1055C00000215048FAF7C6FF0027060E0B023343AE
:1055D00002026E0892197B41100019002A003B005C
:1055E000FAF7B8FF484A03008118484A012091425F
:1055F0007AD8424AD360002076E0424BA3E780236A
:1056000001211B029A423CD1002E21D04918012EC3
:105610001ED00231022E1BD00231032E18D00231CF
:10562000042E15D00231052E12D00231062E0FD0D5
:105630000431072E0CD01031082E09D02031092E4C
:1056400006D040310A2E03D07F390B2E00D1FF3116
:105650002C48FAF791FD6B0840002900C018FAF7B2
:105660008BFD2B4D81B21639030002040120A942A3
:105670003AD80F2112038B439BB2520F1343FB60A6
:10568000B9E7002E21D04918012E1ED00231022E7A
:105690001BD00231032E18D00231042E15D0023156
:1056A000052E12D00231062E0FD00431072E0CD059
:1056B0001031082E09D02031092E06D040310A2E93
:1056C00003D07F390B2E00D1FF310E48FAF754FD7D
:1056D0006B082900C018FAF74FFD83B21A000C4975
:1056E000163A01208A42CAD90A4BA3660023E36610
:1056F0002367F8BDF369FFCFFFCFFFFF00500041E4
:10570000FFF4FF110024F40000FDFFFFFFFC0F0079
:10571000E9FF000001000100836A30B5DA0706D511
:105720000168284C4A682240C46A22434A609A07AA
:1057300006D50168244C4A682240046B22434A6023
:105740005A0706D50168214C4A682240446B22431F
:105750004A601A0706D501681D4C4A682240846BCE
:1057600022434A60DA0606D501681A4C8A6822404C
:10577000C46B22438A609A0606D50168164C8A6873
:105780002240046C22438A605A0610D50168134DEA
:105790004A68446C2A4022434A6080225203944261
:1057A00005D14A680E4C2240846C22434A601B0695
:1057B00006D502680B4953680B40C16C0B4353601C
:1057C00030BDC046FFFFFDFFFFFFFEFFFFFFFBFFF9
:1057D000FF7FFFFFFFEFFFFFFFDFFFFFFFFFEFFF99
:1057E000FFFF9FFFFFFFF7FFF8B504000D00170054
:1057F0001E002268D3692B405B1B59424B41BB42C0
:1058000001D000201EE0069B0133F3D0FEF76CFCB4
:10581000069B801B984201D8002BEAD1220008CABF
:1058200009481968014019609968A330FF30814325
:1058300099602023D36722000832D36700237C3489
:1058400023700230F8BDC0465FFEFFFFF0B5071DB4
:1058500087B00593FB6F04000D0016000220202B7B
:105860004DD1013800294AD0002A48D08023A268AF
:105870005B019A4204D12369002B01D101423ED140
:1058800023007C331A780220012A38D001221A70B2
:105890000022DA602123FB67FEF726FC2300543345
:1058A0001E8002331E8003938023A268002604908A
:1058B0005B019A4204D12369B34201D12E001D003D
:1058C000230056331B889AB2002B0DD1059B402133
:1058D00000932000049BFFF787FF00280ED12023B0
:1058E0007C34FB6720700AE0059B00220093802136
:1058F0002000049BFFF778FF002802D0032007B0A8
:10590000F0BD2268002D0BD133880236DB05DB0D9C
:105910009362039B039A1B88013B9BB21380CFE7E2
:105920002B7801359362F4E7030073B50026040079
:1059300088331E60FEF7D8FB236805001B681B0731
:1059400017D423681B685B070AD580210F4B002200
:10595000009320002B00C903FFF746FF002813D156
:1059600020230020221DD3677C340432D3672070AB
:105970000BE08021054B32000093890303002000D7
:10598000FFF732FF0028DCD0032076BDFFFFFF01C8
:1059900070B5041E01D1012070BD051DEB6F002BF9
:1059A00004D102007C321370FDF7F2FE24230121A2
:1059B0002268EB67136820008B431360FFF76CFDD0
:1059C0000128E8D0A36A002B02D02000FFF7A4FE34
:1059D000236808495A6820000A402A215A609A68B8
:1059E0008A439A60012219680A431A60FFF79CFFF4
:1059F000D2E7C046FFB7FFFF7FB504000822154974
:105A000068460DF093FC0822134902A80DF08EFCA5
:105A1000636E002B02D1114BA3667FBD6A46082638
:105A200023689D689B685B0FD05C9219D15CC000B5
:105A3000FAF72CFC23006A466A3318802B015B0FAF
:105A4000D05C9219D15CC000FAF720FC6834208049
:105A5000E3E7C046EC850510288A05100100010027
:105A600070B504007C34227803000220012A10D093
:105A7000242201261D1DEA671A6811681068B043C8
:105A80001060044801400020586620231160EB6735
:105A9000207070BDFFFFFFDFF8B505007C352B7867
:105AA00004000A000220012B17D02423013828709B
:105AB000261DF36723681F68196881431960996878
:105AC0002000C900C90811439960FFF795FF2368BA
:105AD00000201F602023F3672870F8BDF8B505008B
